        evopro-77c9d79fde8cb726c27a6261f52eb510._googlecast._tcp.local: type SRV, class IN, "QM" question
            Name: evopro-77c9d79fde8cb726c27a6261f52eb510._googlecast._tcp.local
            [Name Length: 62]
            [Label Count: 4]
            Type: SRV (33) (Server Selection)
            .000 0000 0000 0001 = Class: IN (0x0001)
            0... .... .... .... = "QU" question: False
[Community ID: 1:H7qHTbJN3dZdRFAv/46gChl1MSg=]

0000  01 00 5e 00 00 fb c0 f5 35 3a 07 8e 08 00 45 00   ..^.....5:....E.
0010  00 6c 58 d6 40 00 ff 11 37 78 0a 00 00 37 e0 00   .lX.@...7x...7..
0020  00 fb 14 e9 14 e9 00 58 86 5c 00 00 00 00 00 01   .......X.\......
0030  00 00 00 00 00 00 27 65 76 6f 70 72 6f 2d 37 37   ......'evopro-77
0040  63 39 64 37 39 66 64 65 38 63 62 37 32 36 63 32   c9d79fde8cb726c2
0050  37 61 36 32 36 31 66 35 32 65 62 35 31 30 0b 5f   7a6261f52eb510._
0060  67 6f 6f 67 6c 65 63 61 73 74 04 5f 74 63 70 05   googlecast._tcp.
0070  6c 6f 63 61 6c 00 00 21 00 01                     local..!..

Frame 13243: Packet, 142 bytes on wire (1136 bits), 142 bytes captured (1136 bits) on interface \Device\NPF_{12008EE0-85E6-469A-84F0-2F82A7D4A773}, id 0
    Section number: 1
    Interface id: 0 (\Device\NPF_{12008EE0-85E6-469A-84F0-2F82A7D4A773})
        Interface name: \Device\NPF_{12008EE0-85E6-469A-84F0-2F82A7D4A773}
        Interface description: Wi-Fi
    Encapsulation type: Ethernet (1)
    Arrival Time: Mar 30, 2026 16:58:55.815597000 Central America Standard Time
    UTC Arrival Time: Mar 30, 2026 22:58:55.815597000 UTC
    Epoch Arrival Time: 1774911535.815597000
    [Time shift for this packet: 0.000000000 seconds]
    [Time delta from previous captured frame: 0.000000000 seconds]
    [Time delta from previous displayed frame: 0.000000000 seconds]
    [Time since reference or first frame: 27.045875000 seconds]
    Frame Number: 13243
    Frame Length: 142 bytes (1136 bits)
    Capture Length: 142 bytes (1136 bits)
    [Frame is marked: False]
    [Frame is ignored: False]
    [Protocols in frame: eth:ethertype:ipv6:udp:mdns]
    Character encoding: ASCII (0)
Ethernet II, Src: AMPAKTechnol_3a:07:8e (c0:f5:35:3a:07:8e), Dst: IPv6mcast_fb (33:33:00:00:00:fb)
    Destination: IPv6mcast_fb (33:33:00:00:00:fb)
        .... ..1. .... .... .... .... = LG bit: Locally administered address (this is NOT the factory default)
        .... ...1 .... .... .... .... = IG bit: Group address (multicast/broadcast)
    Source: AMPAKTechnol_3a:07:8e (c0:f5:35:3a:07:8e)
        .... ..0. .... .... .... .... = LG bit: Globally unique address (factory default)
        .... ...0 .... .... .... .... = IG bit: Individual address (unicast)
    Type: IPv6 (0x86dd)
    [Stream index: 24]
Internet Protocol Version 6, Src: 26e15654-1ab6-32ae-d6ec-1a1bcf7e32f4.local (fe80::6ee7:c3d0:f7a2:dbf3), Dst: ff02::fb (ff02::fb)
    0110 .... = Version: 6
    .... 0000 0000 .... .... .... .... .... = Traffic Class: 0x00 (DSCP: CS0, ECN: Not-ECT)
        .... 0000 00.. .... .... .... .... .... = Differentiated Services Codepoint: Default (0)
        .... .... ..00 .... .... .... .... .... = Explicit Congestion Notification: Not ECN-Capable Transport (0)
    .... 0100 0001 0000 0101 0000 = Flow Label: 0x41050
    Payload Length: 88
    Next Header: UDP (17)
    Hop Limit: 255
    Source Address: 26e15654-1ab6-32ae-d6ec-1a1bcf7e32f4.local (fe80::6ee7:c3d0:f7a2:dbf3)
        [Address Space: Link-Local Unicast]
        [Special-Purpose Allocation: Link-Local Unicast]
            [Source: True]
            [Destination: True]
            [Forwardable: False]
            [Globally Reachable: False]
            [Reserved-by-Protocol: True]
    Destination Address: ff02::fb (ff02::fb)
        [Address Space: Multicast]
        [.... .... 0000 .... = Multicast Flags: 0x0]
            .... .... 0... .... = Reserved: 0
            .... .... .0.. .... = Rendezvous Point (RP): False
            .... .... ..0. .... = Network Prefix: False
            .... .... ...0 .... = Transient: False
        [.... .... .... 0010 = Multicast Scope: Link-Local scope (0x2)]
    [Stream index: 11]
User Datagram Protocol, Src Port: mdns (5353), Dst Port: mdns (5353)
    Source Port: mdns (5353)
    Destination Port: mdns (5353)
    Length: 88
    Checksum: 0x6cc1 [unverified]
    [Checksum Status: Unverified]
    [Stream index: 24]
    [Stream Packet Number: 39]
    [Timestamps]
        [Time since first frame: 26.615178000 seconds]
        [Time since previous frame: 190.905000 milliseconds]
    UDP payload (80 bytes)
Multicast Domain Name System (query)
    Transaction ID: 0x0000
    Flags: 0x0000 Standard query
        0... .... .... .... = Response: Message is a query
        .000 0... .... .... = Opcode: Standard query (0)
        .... ..0. .... .... = Truncated: Message is not truncated
        .... ...0 .... .... = Recursion desired: Don't do query recursively
        .... .... .0.. .... = Z: reserved (0)
        .... .... ...0 .... = Non-authenticated data: Unacceptable
    Questions: 1
    Answer RRs: 0
    Authority RRs: 0
    Additional RRs: 0
    Queries
        evopro-77c9d79fde8cb726c27a6261f52eb510._googlecast._tcp.local: type SRV, class IN, "QM" question
            Name: evopro-77c9d79fde8cb726c27a6261f52eb510._googlecast._tcp.local
            [Name Length: 62]
            [Label Count: 4]
            Type: SRV (33) (Server Selection)
            .000 0000 0000 0001 = Class: IN (0x0001)
            0... .... .... .... = "QU" question: False
[Community ID: 1:s2yoHKFtbpFHlwvcG9Jg6nX8wFE=]

0000  33 33 00 00 00 fb c0 f5 35 3a 07 8e 86 dd 60 04   33......5:....`.
0010  10 50 00 58 11 ff fe 80 00 00 00 00 00 00 6e e7   .P.X..........n.
0020  c3 d0 f7 a2 db f3 ff 02 00 00 00 00 00 00 00 00   ................
0030  00 00 00 00 00 fb 14 e9 14 e9 00 58 6c c1 00 00   ...........Xl...
0040  00 00 00 01 00 00 00 00 00 00 27 65 76 6f 70 72   ..........'evopr
0050  6f 2d 37 37 63 39 64 37 39 66 64 65 38 63 62 37   o-77c9d79fde8cb7
0060  32 36 63 32 37 61 36 32 36 31 66 35 32 65 62 35   26c27a6261f52eb5
0070  31 30 0b 5f 67 6f 6f 67 6c 65 63 61 73 74 04 5f   10._googlecast._
0080  74 63 70 05 6c 6f 63 61 6c 00 00 21 00 01         tcp.local..!..

Frame 13244: Packet, 122 bytes on wire (976 bits), 122 bytes captured (976 bits) on interface \Device\NPF_{12008EE0-85E6-469A-84F0-2F82A7D4A773}, id 0
    Section number: 1
    Interface id: 0 (\Device\NPF_{12008EE0-85E6-469A-84F0-2F82A7D4A773})
        Interface name: \Device\NPF_{12008EE0-85E6-469A-84F0-2F82A7D4A773}
        Interface description: Wi-Fi
    Encapsulation type: Ethernet (1)
    Arrival Time: Mar 30, 2026 16:58:55.815597000 Central America Standard Time
    UTC Arrival Time: Mar 30, 2026 22:58:55.815597000 UTC
    Epoch Arrival Time: 1774911535.815597000
    [Time shift for this packet: 0.000000000 seconds]
    [Time delta from previous captured frame: 0.000000000 seconds]
    [Time delta from previous displayed frame: 0.000000000 seconds]
    [Time since reference or first frame: 27.045875000 seconds]
    Frame Number: 13244
    Frame Length: 122 bytes (976 bits)
    Capture Length: 122 bytes (976 bits)
    [Frame is marked: False]
    [Frame is ignored: False]
    [Protocols in frame: eth:ethertype:ipv6:udp:mdns]
    Character encoding: ASCII (0)
Ethernet II, Src: unifi.localdomain (6c:63:f8:eb:9c:13), Dst: IPv6mcast_fb (33:33:00:00:00:fb)
    Destination: IPv6mcast_fb (33:33:00:00:00:fb)
        .... ..1. .... .... .... .... = LG bit: Locally administered address (this is NOT the factory default)
        .... ...1 .... .... .... .... = IG bit: Group address (multicast/broadcast)
    Source: unifi.localdomain (6c:63:f8:eb:9c:13)
        .... ..0. .... .... .... .... = LG bit: Globally unique address (factory default)
        .... ...0 .... .... .... .... = IG bit: Individual address (unicast)
    Type: IPv6 (0x86dd)
    [Stream index: 1]
Internet Protocol Version 6, Src: SC-DM.local (fe80::6e63:f8ff:feeb:9c13), Dst: ff02::fb (ff02::fb)
    0110 .... = Version: 6
    .... 0000 0000 .... .... .... .... .... = Traffic Class: 0x00 (DSCP: CS0, ECN: Not-ECT)
        .... 0000 00.. .... .... .... .... .... = Differentiated Services Codepoint: Default (0)
        .... .... ..00 .... .... .... .... .... = Explicit Congestion Notification: Not ECN-Capable Transport (0)
    .... 1001 1101 1001 1011 0000 = Flow Label: 0x9d9b0
    Payload Length: 68
    Next Header: UDP (17)
    Hop Limit: 255
    Source Address: SC-DM.local (fe80::6e63:f8ff:feeb:9c13)
        [Address Space: Link-Local Unicast]
        [Special-Purpose Allocation: Link-Local Unicast]
            [Source: True]
            [Destination: True]
            [Forwardable: False]
            [Globally Reachable: False]
            [Reserved-by-Protocol: True]
    Destination Address: ff02::fb (ff02::fb)
        [Address Space: Multicast]
        [.... .... 0000 .... = Multicast Flags: 0x0]
            .... .... 0... .... = Reserved: 0
            .... .... .0.. .... = Rendezvous Point (RP): False
            .... .... ..0. .... = Network Prefix: False
            .... .... ...0 .... = Transient: False
        [.... .... .... 0010 = Multicast Scope: Link-Local scope (0x2)]
    [Source SLAAC MAC: unifi.localdomain (6c:63:f8:eb:9c:13)]
    [Stream index: 0]
User Datagram Protocol, Src Port: mdns (5353), Dst Port: mdns (5353)
    Source Port: mdns (5353)
    Destination Port: mdns (5353)
    Length: 68
    Checksum: 0x5d22 [unverified]
    [Checksum Status: Unverified]
    [Stream index: 1]
    [Stream Packet Number: 3739]
    [Timestamps]
        [Time since first frame: 27.045875000 seconds]
        [Time since previous frame: 3.014000 milliseconds]
    UDP payload (60 bytes)
Multicast Domain Name System (query)
    Transaction ID: 0x0000
        [Expert Info (Warning/Protocol): DNS query retransmission. Original request in frame 13217]
            [DNS query retransmission. Original request in frame 13217]
            [Severity level: Warning]
            [Group: Protocol]
    Flags: 0x0000 Standard query
        0... .... .... .... = Response: Message is a query
        .000 0... .... .... = Opcode: Standard query (0)
        .... ..0. .... .... = Truncated: Message is not truncated
        .... ...0 .... .... = Recursion desired: Don't do query recursively
        .... .... .0.. .... = Z: reserved (0)
        .... .... ...0 .... = Non-authenticated data: Unacceptable
    Questions: 1
    Answer RRs: 0
    Authority RRs: 0
    Additional RRs: 0
    Queries
        26e15654-1ab6-32ae-d6ec-1a1bcf7e32f4.local: type ANY, class IN, "QM" question
            Name: 26e15654-1ab6-32ae-d6ec-1a1bcf7e32f4.local
            [Name Length: 42]
            [Label Count: 2]
            Type: ANY (255) (A request for all records the server/cache has available)
            .000 0000 0000 0001 = Class: IN (0x0001)
            0... .... .... .... = "QU" question: False
    [Retransmitted request. Original request in: 13217]
    [Retransmission: True]
[Community ID: 1:4kbkyuSM+0ddlIGcIhRz2NKgEX0=]

0000  33 33 00 00 00 fb 6c 63 f8 eb 9c 13 86 dd 60 09   33....lc......`.
0010  d9 b0 00 44 11 ff fe 80 00 00 00 00 00 00 6e 63   ...D..........nc
0020  f8 ff fe eb 9c 13 ff 02 00 00 00 00 00 00 00 00   ................
0030  00 00 00 00 00 fb 14 e9 14 e9 00 44 5d 22 00 00   ...........D]"..
0040  00 00 00 01 00 00 00 00 00 00 24 32 36 65 31 35   ..........$26e15
0050  36 35 34 2d 31 61 62 36 2d 33 32 61 65 2d 64 36   654-1ab6-32ae-d6
0060  65 63 2d 31 61 31 62 63 66 37 65 33 32 66 34 05   ec-1a1bcf7e32f4.
0070  6c 6f 63 61 6c 00 00 ff 00 01                     local.....

Frame 13245: Packet, 102 bytes on wire (816 bits), 102 bytes captured (816 bits) on interface \Device\NPF_{12008EE0-85E6-469A-84F0-2F82A7D4A773}, id 0
    Section number: 1
    Interface id: 0 (\Device\NPF_{12008EE0-85E6-469A-84F0-2F82A7D4A773})
        Interface name: \Device\NPF_{12008EE0-85E6-469A-84F0-2F82A7D4A773}
        Interface description: Wi-Fi
    Encapsulation type: Ethernet (1)
    Arrival Time: Mar 30, 2026 16:58:55.815597000 Central America Standard Time
    UTC Arrival Time: Mar 30, 2026 22:58:55.815597000 UTC
    Epoch Arrival Time: 1774911535.815597000
    [Time shift for this packet: 0.000000000 seconds]
    [Time delta from previous captured frame: 0.000000000 seconds]
    [Time delta from previous displayed frame: 0.000000000 seconds]
    [Time since reference or first frame: 27.045875000 seconds]
    Frame Number: 13245
    Frame Length: 102 bytes (816 bits)
    Capture Length: 102 bytes (816 bits)
    [Frame is marked: False]
    [Frame is ignored: False]
    [Protocols in frame: eth:ethertype:ip:udp:mdns]
    Character encoding: ASCII (0)
Ethernet II, Src: unifi.localdomain (6c:63:f8:eb:9c:13), Dst: IPv4mcast_fb (01:00:5e:00:00:fb)
    Destination: IPv4mcast_fb (01:00:5e:00:00:fb)
        .... ..0. .... .... .... .... = LG bit: Globally unique address (factory default)
        .... ...1 .... .... .... .... = IG bit: Group address (multicast/broadcast)
    Source: unifi.localdomain (6c:63:f8:eb:9c:13)
        .... ..0. .... .... .... .... = LG bit: Globally unique address (factory default)
        .... ...0 .... .... .... .... = IG bit: Individual address (unicast)
    Type: IPv4 (0x0800)
    [Stream index: 0]
Internet Protocol Version 4, Src: unifi.localdomain (10.0.0.1), Dst: mdns.mcast.net (224.0.0.251)
    0100 .... = Version: 4
    .... 0101 = Header Length: 20 bytes (5)
    Differentiated Services Field: 0x00 (DSCP: CS0, ECN: Not-ECT)
        0000 00.. = Differentiated Services Codepoint: Default (0)
        .... ..00 = Explicit Congestion Notification: Not ECN-Capable Transport (0)
    Total Length: 88
    Identification: 0x4954 (18772)
    010. .... = Flags: 0x2, Don't fragment
        0... .... = Reserved bit: Not set
        .1.. .... = Don't fragment: Set
        ..0. .... = More fragments: Not set
    ...0 0000 0000 0000 = Fragment Offset: 0
    Time to Live: 255
    Protocol: UDP (17)
    Header Checksum: 0x4744 [validation disabled]
    [Header checksum status: Unverified]
    Source Address: unifi.localdomain (10.0.0.1)
    Destination Address: mdns.mcast.net (224.0.0.251)
    [Stream index: 0]
User Datagram Protocol, Src Port: mdns (5353), Dst Port: mdns (5353)
    Source Port: mdns (5353)
    Destination Port: mdns (5353)
    Length: 68
    Checksum: 0x7307 [unverified]
    [Checksum Status: Unverified]
    [Stream index: 0]
    [Stream Packet Number: 2870]
    [Timestamps]
        [Time since first frame: 27.045875000 seconds]
        [Time since previous frame: 2.357000 milliseconds]
    UDP payload (60 bytes)
Multicast Domain Name System (query)
    Transaction ID: 0x0000
        [Expert Info (Warning/Protocol): DNS query retransmission. Original request in frame 13239]
            [DNS query retransmission. Original request in frame 13239]
            [Severity level: Warning]
            [Group: Protocol]
    Flags: 0x0000 Standard query
        0... .... .... .... = Response: Message is a query
        .000 0... .... .... = Opcode: Standard query (0)
        .... ..0. .... .... = Truncated: Message is not truncated
        .... ...0 .... .... = Recursion desired: Don't do query recursively
        .... .... .0.. .... = Z: reserved (0)
        .... .... ...0 .... = Non-authenticated data: Unacceptable
    Questions: 1
    Answer RRs: 0
    Authority RRs: 0
    Additional RRs: 0
    Queries
        26e15654-1ab6-32ae-d6ec-1a1bcf7e32f4.local: type ANY, class IN, "QM" question
            Name: 26e15654-1ab6-32ae-d6ec-1a1bcf7e32f4.local
            [Name Length: 42]
            [Label Count: 2]
            Type: ANY (255) (A request for all records the server/cache has available)
            .000 0000 0000 0001 = Class: IN (0x0001)
            0... .... .... .... = "QU" question: False
    [Retransmitted request. Original request in: 13239]
    [Retransmission: True]
[Community ID: 1:BzhU636H3Up3CAAc7FSCE04RpGM=]

0000  01 00 5e 00 00 fb 6c 63 f8 eb 9c 13 08 00 45 00   ..^...lc......E.
0010  00 58 49 54 40 00 ff 11 47 44 0a 00 00 01 e0 00   .XIT@...GD......
0020  00 fb 14 e9 14 e9 00 44 73 07 00 00 00 00 00 01   .......Ds.......
0030  00 00 00 00 00 00 24 32 36 65 31 35 36 35 34 2d   ......$26e15654-
0040  31 61 62 36 2d 33 32 61 65 2d 64 36 65 63 2d 31   1ab6-32ae-d6ec-1
0050  61 31 62 63 66 37 65 33 32 66 34 05 6c 6f 63 61   a1bcf7e32f4.loca
0060  6c 00 00 ff 00 01                                 l.....

Frame 13246: Packet, 404 bytes on wire (3232 bits), 404 bytes captured (3232 bits) on interface \Device\NPF_{12008EE0-85E6-469A-84F0-2F82A7D4A773}, id 0
    Section number: 1
    Interface id: 0 (\Device\NPF_{12008EE0-85E6-469A-84F0-2F82A7D4A773})
        Interface name: \Device\NPF_{12008EE0-85E6-469A-84F0-2F82A7D4A773}
        Interface description: Wi-Fi
    Encapsulation type: Ethernet (1)
    Arrival Time: Mar 30, 2026 16:58:55.818303000 Central America Standard Time
    UTC Arrival Time: Mar 30, 2026 22:58:55.818303000 UTC
    Epoch Arrival Time: 1774911535.818303000
    [Time shift for this packet: 0.000000000 seconds]
    [Time delta from previous captured frame: 2.706000 milliseconds]
    [Time delta from previous displayed frame: 2.706000 milliseconds]
    [Time since reference or first frame: 27.048581000 seconds]
    Frame Number: 13246
    Frame Length: 404 bytes (3232 bits)
    Capture Length: 404 bytes (3232 bits)
    [Frame is marked: False]
    [Frame is ignored: False]
    [Protocols in frame: eth:ethertype:ipv6:udp:mdns]
    Character encoding: ASCII (0)
Ethernet II, Src: unifi.localdomain (6c:63:f8:eb:9c:13), Dst: IPv6mcast_fb (33:33:00:00:00:fb)
    Destination: IPv6mcast_fb (33:33:00:00:00:fb)
        .... ..1. .... .... .... .... = LG bit: Locally administered address (this is NOT the factory default)
        .... ...1 .... .... .... .... = IG bit: Group address (multicast/broadcast)
    Source: unifi.localdomain (6c:63:f8:eb:9c:13)
        .... ..0. .... .... .... .... = LG bit: Globally unique address (factory default)
        .... ...0 .... .... .... .... = IG bit: Individual address (unicast)
    Type: IPv6 (0x86dd)
    [Stream index: 1]
Internet Protocol Version 6, Src: SC-DM.local (fe80::6e63:f8ff:feeb:9c13), Dst: ff02::fb (ff02::fb)
    0110 .... = Version: 6
    .... 0000 0000 .... .... .... .... .... = Traffic Class: 0x00 (DSCP: CS0, ECN: Not-ECT)
        .... 0000 00.. .... .... .... .... .... = Differentiated Services Codepoint: Default (0)
        .... .... ..00 .... .... .... .... .... = Explicit Congestion Notification: Not ECN-Capable Transport (0)
    .... 1001 1101 1001 1011 0000 = Flow Label: 0x9d9b0
    Payload Length: 350
    Next Header: UDP (17)
    Hop Limit: 255
    Source Address: SC-DM.local (fe80::6e63:f8ff:feeb:9c13)
        [Address Space: Link-Local Unicast]
        [Special-Purpose Allocation: Link-Local Unicast]
            [Source: True]
            [Destination: True]
            [Forwardable: False]
            [Globally Reachable: False]
            [Reserved-by-Protocol: True]
    Destination Address: ff02::fb (ff02::fb)
        [Address Space: Multicast]
        [.... .... 0000 .... = Multicast Flags: 0x0]
            .... .... 0... .... = Reserved: 0
            .... .... .0.. .... = Rendezvous Point (RP): False
            .... .... ..0. .... = Network Prefix: False
            .... .... ...0 .... = Transient: False
        [.... .... .... 0010 = Multicast Scope: Link-Local scope (0x2)]
    [Source SLAAC MAC: unifi.localdomain (6c:63:f8:eb:9c:13)]
    [Stream index: 0]
User Datagram Protocol, Src Port: mdns (5353), Dst Port: mdns (5353)
    Source Port: mdns (5353)
    Destination Port: mdns (5353)
    Length: 350
    Checksum: 0xdb16 [unverified]
    [Checksum Status: Unverified]
    [Stream index: 1]
    [Stream Packet Number: 3740]
    [Timestamps]
        [Time since first frame: 27.048581000 seconds]
        [Time since previous frame: 2.706000 milliseconds]
    UDP payload (342 bytes)
Multicast Domain Name System (response)
    Transaction ID: 0x0000
    Flags: 0x8400 Standard query response, No error
        1... .... .... .... = Response: Message is a response
        .000 0... .... .... = Opcode: Standard query (0)
        .... .1.. .... .... = Authoritative: Server is an authority for domain
        .... ..0. .... .... = Truncated: Message is not truncated
        .... ...0 .... .... = Recursion desired: Don't do query recursively
        .... .... 0... .... = Recursion available: Server can't do recursive queries
        .... .... .0.. .... = Z: reserved (0)
        .... .... ..0. .... = Answer authenticated: Answer/authority portion was not authenticated by the server
        .... .... ...0 .... = Non-authenticated data: Unacceptable
        .... .... .... 0000 = Reply code: No error (0)
    Questions: 0
    Answer RRs: 3
    Authority RRs: 0
    Additional RRs: 0
    Answers
        _googlecast._tcp.local: type PTR, class IN, EVOPRO-61e66c558dee02db523b13c46fa9b83d._googlecast._tcp.local
            Name: _googlecast._tcp.local
            Type: PTR (12) (domain name PoinTeR)
            .000 0000 0000 0001 = Class: IN (0x0001)
            0... .... .... .... = Cache flush: False
            Time to live: 120 (2 minutes)
            Data length: 42
            Domain Name: EVOPRO-61e66c558dee02db523b13c46fa9b83d._googlecast._tcp.local
        EVOPRO-61e66c558dee02db523b13c46fa9b83d._googlecast._tcp.local: type TXT, class IN, cache flush
            Name: EVOPRO-61e66c558dee02db523b13c46fa9b83d._googlecast._tcp.local
            Type: TXT (16) (Text strings)
            .000 0000 0000 0001 = Class: IN (0x0001)
            1... .... .... .... = Cache flush: True
            Time to live: 4500 (1 hour, 15 minutes)
            Data length: 185
            TXT Length: 35
            TXT: id=61e66c558dee02db523b13c46fa9b83d
            TXT Length: 35
            TXT: cd=D2F9D8E8D8989D32BAAD96C2AF8CC711
            TXT Length: 19
            TXT: rm=5ACE846A929DAC17
            TXT Length: 5
            TXT: ve=05
            TXT Length: 9
            TXT: md=EVOPRO
            TXT Length: 18
            TXT: ic=/setup/icon.png
            TXT Length: 7
            TXT: fn=111B
            TXT Length: 9
            TXT: ca=266757
            TXT Length: 4
            TXT: st=0
            TXT Length: 15
            TXT: bs=FA8F32FA9B8D
            TXT Length: 4
            TXT: nf=1
            TXT Length: 9
            TXT: ct=CAC5A2
            TXT Length: 3
            TXT: rs=
        EVOPRO-61e66c558dee02db523b13c46fa9b83d._googlecast._tcp.local: type SRV, class IN, cache flush, priority 0, weight 0, port 8009, target 61e66c55-8dee-02db-523b-13c46fa9b83d.local
            Instance: EVOPRO-61e66c558dee02db523b13c46fa9b83d
            Service: _googlecast
            Protocol: _tcp
            Name: local
            Type: SRV (33) (Server Selection)
            .000 0000 0000 0001 = Class: IN (0x0001)
            1... .... .... .... = Cache flush: True
            Time to live: 120 (2 minutes)
            Data length: 45
            Priority: 0
            Weight: 0
            Port: 8009
            Target: 61e66c55-8dee-02db-523b-13c46fa9b83d.local
    [Request In: 13217]
    [Time: 12.629000 milliseconds]
[Community ID: 1:4kbkyuSM+0ddlIGcIhRz2NKgEX0=]

0000  33 33 00 00 00 fb 6c 63 f8 eb 9c 13 86 dd 60 09   33....lc......`.
0010  d9 b0 01 5e 11 ff fe 80 00 00 00 00 00 00 6e 63   ...^..........nc
0020  f8 ff fe eb 9c 13 ff 02 00 00 00 00 00 00 00 00   ................
0030  00 00 00 00 00 fb 14 e9 14 e9 01 5e db 16 00 00   ...........^....
0040  84 00 00 00 00 03 00 00 00 00 0b 5f 67 6f 6f 67   ..........._goog
0050  6c 65 63 61 73 74 04 5f 74 63 70 05 6c 6f 63 61   lecast._tcp.loca
0060  6c 00 00 0c 00 01 00 00 00 78 00 2a 27 45 56 4f   l........x.*'EVO
0070  50 52 4f 2d 36 31 65 36 36 63 35 35 38 64 65 65   PRO-61e66c558dee
0080  30 32 64 62 35 32 33 62 31 33 63 34 36 66 61 39   02db523b13c46fa9
0090  62 38 33 64 c0 0c c0 2e 00 10 80 01 00 00 11 94   b83d............
00a0  00 b9 23 69 64 3d 36 31 65 36 36 63 35 35 38 64   ..#id=61e66c558d
00b0  65 65 30 32 64 62 35 32 33 62 31 33 63 34 36 66   ee02db523b13c46f
00c0  61 39 62 38 33 64 23 63 64 3d 44 32 46 39 44 38   a9b83d#cd=D2F9D8
00d0  45 38 44 38 39 38 39 44 33 32 42 41 41 44 39 36   E8D8989D32BAAD96
00e0  43 32 41 46 38 43 43 37 31 31 13 72 6d 3d 35 41   C2AF8CC711.rm=5A
00f0  43 45 38 34 36 41 39 32 39 44 41 43 31 37 05 76   CE846A929DAC17.v
0100  65 3d 30 35 09 6d 64 3d 45 56 4f 50 52 4f 12 69   e=05.md=EVOPRO.i
0110  63 3d 2f 73 65 74 75 70 2f 69 63 6f 6e 2e 70 6e   c=/setup/icon.pn
0120  67 07 66 6e 3d 31 31 31 42 09 63 61 3d 32 36 36   g.fn=111B.ca=266
0130  37 35 37 04 73 74 3d 30 0f 62 73 3d 46 41 38 46   757.st=0.bs=FA8F
0140  33 32 46 41 39 42 38 44 04 6e 66 3d 31 09 63 74   32FA9B8D.nf=1.ct
0150  3d 43 41 43 35 41 32 03 72 73 3d c0 2e 00 21 80   =CAC5A2.rs=...!.
0160  01 00 00 00 78 00 2d 00 00 00 00 1f 49 24 36 31   ....x.-.....I$61
0170  65 36 36 63 35 35 2d 38 64 65 65 2d 30 32 64 62   e66c55-8dee-02db
0180  2d 35 32 33 62 2d 31 33 63 34 36 66 61 39 62 38   -523b-13c46fa9b8
0190  33 64 c0 1d                                       3d..

Frame 13247: Packet, 404 bytes on wire (3232 bits), 404 bytes captured (3232 bits) on interface \Device\NPF_{12008EE0-85E6-469A-84F0-2F82A7D4A773}, id 0
    Section number: 1
    Interface id: 0 (\Device\NPF_{12008EE0-85E6-469A-84F0-2F82A7D4A773})
        Interface name: \Device\NPF_{12008EE0-85E6-469A-84F0-2F82A7D4A773}
        Interface description: Wi-Fi
    Encapsulation type: Ethernet (1)
    Arrival Time: Mar 30, 2026 16:58:55.818303000 Central America Standard Time
    UTC Arrival Time: Mar 30, 2026 22:58:55.818303000 UTC
    Epoch Arrival Time: 1774911535.818303000
    [Time shift for this packet: 0.000000000 seconds]
    [Time delta from previous captured frame: 0.000000000 seconds]
    [Time delta from previous displayed frame: 0.000000000 seconds]
    [Time since reference or first frame: 27.048581000 seconds]
    Frame Number: 13247
    Frame Length: 404 bytes (3232 bits)
    Capture Length: 404 bytes (3232 bits)
    [Frame is marked: False]
    [Frame is ignored: False]
    [Protocols in frame: eth:ethertype:ipv6:udp:mdns]
    Character encoding: ASCII (0)
Ethernet II, Src: unifi.localdomain (6c:63:f8:eb:9c:13), Dst: IPv6mcast_fb (33:33:00:00:00:fb)
    Destination: IPv6mcast_fb (33:33:00:00:00:fb)
        .... ..1. .... .... .... .... = LG bit: Locally administered address (this is NOT the factory default)
        .... ...1 .... .... .... .... = IG bit: Group address (multicast/broadcast)
    Source: unifi.localdomain (6c:63:f8:eb:9c:13)
        .... ..0. .... .... .... .... = LG bit: Globally unique address (factory default)
        .... ...0 .... .... .... .... = IG bit: Individual address (unicast)
    Type: IPv6 (0x86dd)
    [Stream index: 1]
Internet Protocol Version 6, Src: SC-DM.local (fe80::6e63:f8ff:feeb:9c13), Dst: ff02::fb (ff02::fb)
    0110 .... = Version: 6
    .... 0000 0000 .... .... .... .... .... = Traffic Class: 0x00 (DSCP: CS0, ECN: Not-ECT)
        .... 0000 00.. .... .... .... .... .... = Differentiated Services Codepoint: Default (0)
        .... .... ..00 .... .... .... .... .... = Explicit Congestion Notification: Not ECN-Capable Transport (0)
    .... 1001 1101 1001 1011 0000 = Flow Label: 0x9d9b0
    Payload Length: 350
    Next Header: UDP (17)
    Hop Limit: 255
    Source Address: SC-DM.local (fe80::6e63:f8ff:feeb:9c13)
        [Address Space: Link-Local Unicast]
        [Special-Purpose Allocation: Link-Local Unicast]
            [Source: True]
            [Destination: True]
            [Forwardable: False]
            [Globally Reachable: False]
            [Reserved-by-Protocol: True]
    Destination Address: ff02::fb (ff02::fb)
        [Address Space: Multicast]
        [.... .... 0000 .... = Multicast Flags: 0x0]
            .... .... 0... .... = Reserved: 0
            .... .... .0.. .... = Rendezvous Point (RP): False
            .... .... ..0. .... = Network Prefix: False
            .... .... ...0 .... = Transient: False
        [.... .... .... 0010 = Multicast Scope: Link-Local scope (0x2)]
    [Source SLAAC MAC: unifi.localdomain (6c:63:f8:eb:9c:13)]
    [Stream index: 0]
User Datagram Protocol, Src Port: mdns (5353), Dst Port: mdns (5353)
    Source Port: mdns (5353)
    Destination Port: mdns (5353)
    Length: 350
    Checksum: 0x2b9c [unverified]
    [Checksum Status: Unverified]
    [Stream index: 1]
    [Stream Packet Number: 3741]
    [Timestamps]
        [Time since first frame: 27.048581000 seconds]
        [Time since previous frame: 0.000000000 seconds]
    UDP payload (342 bytes)
Multicast Domain Name System (response)
    Transaction ID: 0x0000
        [Expert Info (Warning/Protocol): DNS response retransmission. Original response in frame 13246]
            [DNS response retransmission. Original response in frame 13246]
            [Severity level: Warning]
            [Group: Protocol]
    Flags: 0x8400 Standard query response, No error
        1... .... .... .... = Response: Message is a response
        .000 0... .... .... = Opcode: Standard query (0)
        .... .1.. .... .... = Authoritative: Server is an authority for domain
        .... ..0. .... .... = Truncated: Message is not truncated
        .... ...0 .... .... = Recursion desired: Don't do query recursively
        .... .... 0... .... = Recursion available: Server can't do recursive queries
        .... .... .0.. .... = Z: reserved (0)
        .... .... ..0. .... = Answer authenticated: Answer/authority portion was not authenticated by the server
        .... .... ...0 .... = Non-authenticated data: Unacceptable
        .... .... .... 0000 = Reply code: No error (0)
    Questions: 0
    Answer RRs: 3
    Authority RRs: 0
    Additional RRs: 0
    Answers
        _googlecast._tcp.local: type PTR, class IN, EVOPRO-9977b9d1fbb84a9123f102788fb273d7._googlecast._tcp.local
            Name: _googlecast._tcp.local
            Type: PTR (12) (domain name PoinTeR)
            .000 0000 0000 0001 = Class: IN (0x0001)
            0... .... .... .... = Cache flush: False
            Time to live: 120 (2 minutes)
            Data length: 42
            Domain Name: EVOPRO-9977b9d1fbb84a9123f102788fb273d7._googlecast._tcp.local
        EVOPRO-9977b9d1fbb84a9123f102788fb273d7._googlecast._tcp.local: type TXT, class IN, cache flush
            Name: EVOPRO-9977b9d1fbb84a9123f102788fb273d7._googlecast._tcp.local
            Type: TXT (16) (Text strings)
            .000 0000 0000 0001 = Class: IN (0x0001)
            1... .... .... .... = Cache flush: True
            Time to live: 4500 (1 hour, 15 minutes)
            Data length: 185
            TXT Length: 35
            TXT: id=9977b9d1fbb84a9123f102788fb273d7
            TXT Length: 35
            TXT: cd=CE515D342CCBA8CB636D4D4747D1386C
            TXT Length: 19
            TXT: rm=893C700C7BCE76C4
            TXT Length: 5
            TXT: ve=05
            TXT Length: 9
            TXT: md=EVOPRO
            TXT Length: 18
            TXT: ic=/setup/icon.png
            TXT Length: 7
            TXT: fn=105B
            TXT Length: 9
            TXT: ca=266757
            TXT Length: 4
            TXT: st=0
            TXT Length: 15
            TXT: bs=FA8F6476A464
            TXT Length: 4
            TXT: nf=1
            TXT Length: 9
            TXT: ct=CACFA1
            TXT Length: 3
            TXT: rs=
        EVOPRO-9977b9d1fbb84a9123f102788fb273d7._googlecast._tcp.local: type SRV, class IN, cache flush, priority 0, weight 0, port 8009, target 9977b9d1-fbb8-4a91-23f1-02788fb273d7.local
            Instance: EVOPRO-9977b9d1fbb84a9123f102788fb273d7
            Service: _googlecast
            Protocol: _tcp
            Name: local
            Type: SRV (33) (Server Selection)
            .000 0000 0000 0001 = Class: IN (0x0001)
            1... .... .... .... = Cache flush: True
            Time to live: 120 (2 minutes)
            Data length: 45
            Priority: 0
            Weight: 0
            Port: 8009
            Target: 9977b9d1-fbb8-4a91-23f1-02788fb273d7.local
    [Retransmitted response. Original response in: 13246]
    [Retransmission: True]
[Community ID: 1:4kbkyuSM+0ddlIGcIhRz2NKgEX0=]

0000  33 33 00 00 00 fb 6c 63 f8 eb 9c 13 86 dd 60 09   33....lc......`.
0010  d9 b0 01 5e 11 ff fe 80 00 00 00 00 00 00 6e 63   ...^..........nc
0020  f8 ff fe eb 9c 13 ff 02 00 00 00 00 00 00 00 00   ................
0030  00 00 00 00 00 fb 14 e9 14 e9 01 5e 2b 9c 00 00   ...........^+...
0040  84 00 00 00 00 03 00 00 00 00 0b 5f 67 6f 6f 67   ..........._goog
0050  6c 65 63 61 73 74 04 5f 74 63 70 05 6c 6f 63 61   lecast._tcp.loca
0060  6c 00 00 0c 00 01 00 00 00 78 00 2a 27 45 56 4f   l........x.*'EVO
0070  50 52 4f 2d 39 39 37 37 62 39 64 31 66 62 62 38   PRO-9977b9d1fbb8
0080  34 61 39 31 32 33 66 31 30 32 37 38 38 66 62 32   4a9123f102788fb2
0090  37 33 64 37 c0 0c c0 2e 00 10 80 01 00 00 11 94   73d7............
00a0  00 b9 23 69 64 3d 39 39 37 37 62 39 64 31 66 62   ..#id=9977b9d1fb
00b0  62 38 34 61 39 31 32 33 66 31 30 32 37 38 38 66   b84a9123f102788f
00c0  62 32 37 33 64 37 23 63 64 3d 43 45 35 31 35 44   b273d7#cd=CE515D
00d0  33 34 32 43 43 42 41 38 43 42 36 33 36 44 34 44   342CCBA8CB636D4D
00e0  34 37 34 37 44 31 33 38 36 43 13 72 6d 3d 38 39   4747D1386C.rm=89
00f0  33 43 37 30 30 43 37 42 43 45 37 36 43 34 05 76   3C700C7BCE76C4.v
0100  65 3d 30 35 09 6d 64 3d 45 56 4f 50 52 4f 12 69   e=05.md=EVOPRO.i
0110  63 3d 2f 73 65 74 75 70 2f 69 63 6f 6e 2e 70 6e   c=/setup/icon.pn
0120  67 07 66 6e 3d 31 30 35 42 09 63 61 3d 32 36 36   g.fn=105B.ca=266
0130  37 35 37 04 73 74 3d 30 0f 62 73 3d 46 41 38 46   757.st=0.bs=FA8F
0140  36 34 37 36 41 34 36 34 04 6e 66 3d 31 09 63 74   6476A464.nf=1.ct
0150  3d 43 41 43 46 41 31 03 72 73 3d c0 2e 00 21 80   =CACFA1.rs=...!.
0160  01 00 00 00 78 00 2d 00 00 00 00 1f 49 24 39 39   ....x.-.....I$99
0170  37 37 62 39 64 31 2d 66 62 62 38 2d 34 61 39 31   77b9d1-fbb8-4a91
0180  2d 32 33 66 31 2d 30 32 37 38 38 66 62 32 37 33   -23f1-02788fb273
0190  64 37 c0 1d                                       d7..

Frame 13248: Packet, 209 bytes on wire (1672 bits), 209 bytes captured (1672 bits) on interface \Device\NPF_{12008EE0-85E6-469A-84F0-2F82A7D4A773}, id 0
    Section number: 1
    Interface id: 0 (\Device\NPF_{12008EE0-85E6-469A-84F0-2F82A7D4A773})
        Interface name: \Device\NPF_{12008EE0-85E6-469A-84F0-2F82A7D4A773}
        Interface description: Wi-Fi
    Encapsulation type: Ethernet (1)
    Arrival Time: Mar 30, 2026 16:58:55.818303000 Central America Standard Time
    UTC Arrival Time: Mar 30, 2026 22:58:55.818303000 UTC
    Epoch Arrival Time: 1774911535.818303000
    [Time shift for this packet: 0.000000000 seconds]
    [Time delta from previous captured frame: 0.000000000 seconds]
    [Time delta from previous displayed frame: 0.000000000 seconds]
    [Time since reference or first frame: 27.048581000 seconds]
    Frame Number: 13248
    Frame Length: 209 bytes (1672 bits)
    Capture Length: 209 bytes (1672 bits)
    [Frame is marked: False]
    [Frame is ignored: False]
    [Protocols in frame: eth:ethertype:ip:tcp:tls]
    Character encoding: ASCII (0)
Ethernet II, Src: unifi.localdomain (6c:63:f8:eb:9c:13), Dst: DESKTOP-7HDTRP6 (d0:c6:37:4c:c3:72)
    Destination: DESKTOP-7HDTRP6 (d0:c6:37:4c:c3:72)
        .... ..0. .... .... .... .... = LG bit: Globally unique address (factory default)
        .... ...0 .... .... .... .... = IG bit: Individual address (unicast)
    Source: unifi.localdomain (6c:63:f8:eb:9c:13)
        .... ..0. .... .... .... .... = LG bit: Globally unique address (factory default)
        .... ...0 .... .... .... .... = IG bit: Individual address (unicast)
    Type: IPv4 (0x0800)
    [Stream index: 6]
Internet Protocol Version 4, Src: 104.18.20.246 (104.18.20.246), Dst: DESKTOP-7HDTRP6 (10.0.1.254)
    0100 .... = Version: 4
    .... 0101 = Header Length: 20 bytes (5)
    Differentiated Services Field: 0x00 (DSCP: CS0, ECN: Not-ECT)
        0000 00.. = Differentiated Services Codepoint: Default (0)
        .... ..00 = Explicit Congestion Notification: Not ECN-Capable Transport (0)
    Total Length: 195
    Identification: 0x537a (21370)
    010. .... = Flags: 0x2, Don't fragment
        0... .... = Reserved bit: Not set
        .1.. .... = Don't fragment: Set
        ..0. .... = More fragments: Not set
    ...0 0000 0000 0000 = Fragment Offset: 0
    Time to Live: 56
    Protocol: TCP (6)
    Header Checksum: 0x65b5 [validation disabled]
    [Header checksum status: Unverified]
    Source Address: 104.18.20.246 (104.18.20.246)
    Destination Address: DESKTOP-7HDTRP6 (10.0.1.254)
    [Stream index: 48]
Transmission Control Protocol, Src Port: https (443), Dst Port: 48591 (48591), Seq: 228457, Ack: 1846, Len: 155
    Source Port: https (443)
    Destination Port: 48591 (48591)
    [Stream index: 32]
    [Stream Packet Number: 1437]
    [Conversation completeness: Incomplete (12)]
        ..0. .... = RST: Absent
        ...0 .... = FIN: Absent
        .... 1... = Data: Present
        .... .1.. = ACK: Present
        .... ..0. = SYN-ACK: Absent
        .... ...0 = SYN: Absent
        [Completeness Flags: ··DA··]
    [TCP Segment Len: 155]
    Sequence Number: 228457    (relative sequence number)
    Sequence Number (raw): 3728978080
    [Next Sequence Number: 228612    (relative sequence number)]
    Acknowledgment Number: 1846    (relative ack number)
    Acknowledgment number (raw): 3262956727
    0101 .... = Header Length: 20 bytes (5)
    Flags: 0x018 (PSH, ACK)
        000. .... .... = Reserved: Not set
        ...0 .... .... = Accurate ECN: Not set
        .... 0... .... = Congestion Window Reduced: Not set
        .... .0.. .... = ECN-Echo: Not set
        .... ..0. .... = Urgent: Not set
        .... ...1 .... = Acknowledgment: Set
        .... .... 1... = Push: Set
        .... .... .0.. = Reset: Not set
        .... .... ..0. = Syn: Not set
        .... .... ...0 = Fin: Not set
        [TCP Flags: ·······AP···]
    Window: 259
    [Calculated window size: 259]
    [Window size scaling factor: -1 (unknown)]
    Checksum: 0xdc1a [unverified]
    [Checksum Status: Unverified]
    Urgent Pointer: 0
    [Timestamps]
        [Time since first frame in this TCP stream: 16.764668000 seconds]
        [Time since previous frame in this TCP stream: 36.819000 milliseconds]
    [SEQ/ACK analysis]
        [Bytes in flight: 155]
        [Bytes sent since last PSH flag: 155]
    [Client Contiguous Streams: 1]
    [Server Contiguous Streams: 1]
    TCP payload (155 bytes)
Transport Layer Security
    [Stream index: 27]
    TLSv1.2 Record Layer: Application Data Protocol: Hypertext Transfer Protocol
        Content Type: Application Data (23)
        Version: TLS 1.2 (0x0303)
        Length: 150
        Encrypted Application Data […]: 736abcd133c538581cf5d674da364f097022bf1afe7ed5db0085e8b3e05f3cc6eaeaa85a85c45fc8d4d240d4b61b54e51e53bc045ad269b4a56bb24d7318de341b8c7f3bf69f278afff1bd4fe09378e55345a1b93aa38a358057583703683a9e3cb7be7c9b990
        [Application Data Protocol: Hypertext Transfer Protocol]
[Community ID: 1:fTrMmAucufepXJros6MUci/1gfg=]

0000  d0 c6 37 4c c3 72 6c 63 f8 eb 9c 13 08 00 45 00   ..7L.rlc......E.
0010  00 c3 53 7a 40 00 38 06 65 b5 68 12 14 f6 0a 00   ..Sz@.8.e.h.....
0020  01 fe 01 bb bd cf de 43 b0 a0 c2 7c c4 b7 50 18   .......C...|..P.
0030  01 03 dc 1a 00 00 17 03 03 00 96 73 6a bc d1 33   ...........sj..3
0040  c5 38 58 1c f5 d6 74 da 36 4f 09 70 22 bf 1a fe   .8X...t.6O.p"...
0050  7e d5 db 00 85 e8 b3 e0 5f 3c c6 ea ea a8 5a 85   ~......._<....Z.
0060  c4 5f c8 d4 d2 40 d4 b6 1b 54 e5 1e 53 bc 04 5a   ._...@...T..S..Z
0070  d2 69 b4 a5 6b b2 4d 73 18 de 34 1b 8c 7f 3b f6   .i..k.Ms..4...;.
0080  9f 27 8a ff f1 bd 4f e0 93 78 e5 53 45 a1 b9 3a   .'....O..x.SE..:
0090  a3 8a 35 80 57 58 37 03 68 3a 9e 3c b7 be 7c 9b   ..5.WX7.h:.<..|.
00a0  99 08 b9 b9 34 1f ed 3d 9a f2 fa 0a 71 a0 4d 9d   ....4..=....q.M.
00b0  03 ab ef 82 60 13 06 e8 ee 9f 13 ed 50 9a 6f 64   ....`.......P.od
00c0  7c 3e 28 84 55 4d 24 f0 2c 63 42 61 d7 a5 e2 10   |>(.UM$.,cBa....
00d0  ee                                                .

Frame 13249: Packet, 56 bytes on wire (448 bits), 56 bytes captured (448 bits) on interface \Device\NPF_{12008EE0-85E6-469A-84F0-2F82A7D4A773}, id 0
    Section number: 1
    Interface id: 0 (\Device\NPF_{12008EE0-85E6-469A-84F0-2F82A7D4A773})
        Interface name: \Device\NPF_{12008EE0-85E6-469A-84F0-2F82A7D4A773}
        Interface description: Wi-Fi
    Encapsulation type: Ethernet (1)
    Arrival Time: Mar 30, 2026 16:58:55.818303000 Central America Standard Time
    UTC Arrival Time: Mar 30, 2026 22:58:55.818303000 UTC
    Epoch Arrival Time: 1774911535.818303000
    [Time shift for this packet: 0.000000000 seconds]
    [Time delta from previous captured frame: 0.000000000 seconds]
    [Time delta from previous displayed frame: 0.000000000 seconds]
    [Time since reference or first frame: 27.048581000 seconds]
    Frame Number: 13249
    Frame Length: 56 bytes (448 bits)
    Capture Length: 56 bytes (448 bits)
    [Frame is marked: False]
    [Frame is ignored: False]
    [Protocols in frame: eth:ethertype:ip:tcp]
    Character encoding: ASCII (0)
Ethernet II, Src: unifi.localdomain (6c:63:f8:eb:9c:13), Dst: DESKTOP-7HDTRP6 (d0:c6:37:4c:c3:72)
    Destination: DESKTOP-7HDTRP6 (d0:c6:37:4c:c3:72)
        .... ..0. .... .... .... .... = LG bit: Globally unique address (factory default)
        .... ...0 .... .... .... .... = IG bit: Individual address (unicast)
    Source: unifi.localdomain (6c:63:f8:eb:9c:13)
        .... ..0. .... .... .... .... = LG bit: Globally unique address (factory default)
        .... ...0 .... .... .... .... = IG bit: Individual address (unicast)
    Type: IPv4 (0x0800)
    [Stream index: 6]
    Trailer: 0000
Internet Protocol Version 4, Src: 235.109.160.34.bc.googleusercontent.com (34.160.109.235), Dst: DESKTOP-7HDTRP6 (10.0.1.254)
    0100 .... = Version: 4
    .... 0101 = Header Length: 20 bytes (5)
    Differentiated Services Field: 0x00 (DSCP: CS0, ECN: Not-ECT)
        0000 00.. = Differentiated Services Codepoint: Default (0)
        .... ..00 = Explicit Congestion Notification: Not ECN-Capable Transport (0)
    Total Length: 40
    Identification: 0x3cb7 (15543)
    000. .... = Flags: 0x0
        0... .... = Reserved bit: Not set
        .0.. .... = Don't fragment: Not set
        ..0. .... = More fragments: Not set
    ...0 0000 0000 0000 = Fragment Offset: 0
    Time to Live: 119
    Protocol: TCP (6)
    Header Checksum: 0x6a90 [validation disabled]
    [Header checksum status: Unverified]
    Source Address: 235.109.160.34.bc.googleusercontent.com (34.160.109.235)
    Destination Address: DESKTOP-7HDTRP6 (10.0.1.254)
    [Stream index: 2]
Transmission Control Protocol, Src Port: https (443), Dst Port: 57480 (57480), Seq: 4594, Ack: 656, Len: 0
    Source Port: https (443)
    Destination Port: 57480 (57480)
    [Stream index: 5]
    [Stream Packet Number: 54]
    [Conversation completeness: Incomplete (12)]
        ..0. .... = RST: Absent
        ...0 .... = FIN: Absent
        .... 1... = Data: Present
        .... .1.. = ACK: Present
        .... ..0. = SYN-ACK: Absent
        .... ...0 = SYN: Absent
        [Completeness Flags: ··DA··]
    [TCP Segment Len: 0]
    Sequence Number: 4594    (relative sequence number)
    Sequence Number (raw): 3715497935
    [Next Sequence Number: 4594    (relative sequence number)]
    Acknowledgment Number: 656    (relative ack number)
    Acknowledgment number (raw): 41039493
    0101 .... = Header Length: 20 bytes (5)
    Flags: 0x010 (ACK)
        000. .... .... = Reserved: Not set
        ...0 .... .... = Accurate ECN: Not set
        .... 0... .... = Congestion Window Reduced: Not set
        .... .0.. .... = ECN-Echo: Not set
        .... ..0. .... = Urgent: Not set
        .... ...1 .... = Acknowledgment: Set
        .... .... 0... = Push: Not set
        .... .... .0.. = Reset: Not set
        .... .... ..0. = Syn: Not set
        .... .... ...0 = Fin: Not set
        [TCP Flags: ·······A····]
    Window: 926
    [Calculated window size: 926]
    [Window size scaling factor: -1 (unknown)]
    Checksum: 0x172d [unverified]
    [Checksum Status: Unverified]
    Urgent Pointer: 0
    [Timestamps]
        [Time since first frame in this TCP stream: 26.075312000 seconds]
        [Time since previous frame in this TCP stream: 64.670000 milliseconds]
    [SEQ/ACK analysis]
        [This is an ACK to the segment in frame: 13204]
        [The RTT to ACK the segment was: 64.670000 milliseconds]
    [Client Contiguous Streams: 1]
    [Server Contiguous Streams: 1]
[Community ID: 1:RvGvAVAMpvJ1P4+ztKPwsaxMMl8=]

0000  d0 c6 37 4c c3 72 6c 63 f8 eb 9c 13 08 00 45 00   ..7L.rlc......E.
0010  00 28 3c b7 00 00 77 06 6a 90 22 a0 6d eb 0a 00   .(<...w.j.".m...
0020  01 fe 01 bb e0 88 dd 75 ff cf 02 72 36 85 50 10   .......u...r6.P.
0030  03 9e 17 2d 00 00 00 00                           ...-....

Frame 13250: Packet, 60 bytes on wire (480 bits), 60 bytes captured (480 bits) on interface \Device\NPF_{12008EE0-85E6-469A-84F0-2F82A7D4A773}, id 0
    Section number: 1
    Interface id: 0 (\Device\NPF_{12008EE0-85E6-469A-84F0-2F82A7D4A773})
        Interface name: \Device\NPF_{12008EE0-85E6-469A-84F0-2F82A7D4A773}
        Interface description: Wi-Fi
    Encapsulation type: Ethernet (1)
    Arrival Time: Mar 30, 2026 16:58:55.819556000 Central America Standard Time
    UTC Arrival Time: Mar 30, 2026 22:58:55.819556000 UTC
    Epoch Arrival Time: 1774911535.819556000
    [Time shift for this packet: 0.000000000 seconds]
    [Time delta from previous captured frame: 1.253000 milliseconds]
    [Time delta from previous displayed frame: 1.253000 milliseconds]
    [Time since reference or first frame: 27.049834000 seconds]
    Frame Number: 13250
    Frame Length: 60 bytes (480 bits)
    Capture Length: 60 bytes (480 bits)
    [Frame is marked: False]
    [Frame is ignored: False]
    [Protocols in frame: eth:ethertype:vlan:ethertype:ip:tcp]
    Character encoding: ASCII (0)
Ethernet II, Src: unifi.localdomain (6c:63:f8:eb:9c:13), Dst: DESKTOP-7HDTRP6 (d0:c6:37:4c:c3:72)
    Destination: DESKTOP-7HDTRP6 (d0:c6:37:4c:c3:72)
        .... ..0. .... .... .... .... = LG bit: Globally unique address (factory default)
        .... ...0 .... .... .... .... = IG bit: Individual address (unicast)
    Source: unifi.localdomain (6c:63:f8:eb:9c:13)
        .... ..0. .... .... .... .... = LG bit: Globally unique address (factory default)
        .... ...0 .... .... .... .... = IG bit: Individual address (unicast)
    Type: 802.1Q Virtual LAN (0x8100)
    [Stream index: 6]
802.1Q Virtual LAN, PRI: 0, DEI: 0, ID: 0
    000. .... .... .... = Priority: Best Effort (default) (0)
    ...0 .... .... .... = DEI: Ineligible
    .... 0000 0000 0000 = ID: 0
    Type: IPv4 (0x0800)
    Trailer: 0000
Internet Protocol Version 4, Src: 45.191.36.34.bc.googleusercontent.com (34.36.191.45), Dst: DESKTOP-7HDTRP6 (10.0.1.254)
    0100 .... = Version: 4
    .... 0101 = Header Length: 20 bytes (5)
    Differentiated Services Field: 0x60 (DSCP: CS3, ECN: Not-ECT)
        0110 00.. = Differentiated Services Codepoint: Class Selector 3 (24)
        .... ..00 = Explicit Congestion Notification: Not ECN-Capable Transport (0)
    Total Length: 40
    Identification: 0x85a3 (34211)
    000. .... = Flags: 0x0
        0... .... = Reserved bit: Not set
        .0.. .... = Don't fragment: Not set
        ..0. .... = More fragments: Not set
    ...0 0000 0000 0000 = Fragment Offset: 0
    Time to Live: 121
    Protocol: TCP (6)
    Header Checksum: 0xce7d [validation disabled]
    [Header checksum status: Unverified]
    Source Address: 45.191.36.34.bc.googleusercontent.com (34.36.191.45)
    Destination Address: DESKTOP-7HDTRP6 (10.0.1.254)
    [Stream index: 20]
Transmission Control Protocol, Src Port: https (443), Dst Port: 33038 (33038), Seq: 4621, Ack: 659, Len: 0
    Source Port: https (443)
    Destination Port: 33038 (33038)
    [Stream index: 6]
    [Stream Packet Number: 56]
    [Conversation completeness: Incomplete (12)]
        ..0. .... = RST: Absent
        ...0 .... = FIN: Absent
        .... 1... = Data: Present
        .... .1.. = ACK: Present
        .... ..0. = SYN-ACK: Absent
        .... ...0 = SYN: Absent
        [Completeness Flags: ··DA··]
    [TCP Segment Len: 0]
    Sequence Number: 4621    (relative sequence number)
    Sequence Number (raw): 55689539
    [Next Sequence Number: 4621    (relative sequence number)]
    Acknowledgment Number: 659    (relative ack number)
    Acknowledgment number (raw): 2002603450
    0101 .... = Header Length: 20 bytes (5)
    Flags: 0x010 (ACK)
        000. .... .... = Reserved: Not set
        ...0 .... .... = Accurate ECN: Not set
        .... 0... .... = Congestion Window Reduced: Not set
        .... .0.. .... = ECN-Echo: Not set
        .... ..0. .... = Urgent: Not set
        .... ...1 .... = Acknowledgment: Set
        .... .... 0... = Push: Not set
        .... .... .0.. = Reset: Not set
        .... .... ..0. = Syn: Not set
        .... .... ...0 = Fin: Not set
        [TCP Flags: ·······A····]
    Window: 1013
    [Calculated window size: 1013]
    [Window size scaling factor: -1 (unknown)]
    Checksum: 0xb21a [unverified]
    [Checksum Status: Unverified]
    Urgent Pointer: 0
    [Timestamps]
        [Time since first frame in this TCP stream: 26.076411000 seconds]
        [Time since previous frame in this TCP stream: 66.876000 milliseconds]
    [SEQ/ACK analysis]
        [This is an ACK to the segment in frame: 13202]
        [The RTT to ACK the segment was: 66.876000 milliseconds]
    [Client Contiguous Streams: 1]
    [Server Contiguous Streams: 1]
[Community ID: 1:fVzJeWZD2s8Rq8TMpVQYjqCAf8M=]

0000  d0 c6 37 4c c3 72 6c 63 f8 eb 9c 13 81 00 00 00   ..7L.rlc........
0010  08 00 45 60 00 28 85 a3 00 00 79 06 ce 7d 22 24   ..E`.(....y..}"$
0020  bf 2d 0a 00 01 fe 01 bb 81 0e 03 51 c1 43 77 5d   .-.........Q.Cw]
0030  4d ba 50 10 03 f5 b2 1a 00 00 00 00               M.P.........

Frame 13251: Packet, 209 bytes on wire (1672 bits), 209 bytes captured (1672 bits) on interface \Device\NPF_{12008EE0-85E6-469A-84F0-2F82A7D4A773}, id 0
    Section number: 1
    Interface id: 0 (\Device\NPF_{12008EE0-85E6-469A-84F0-2F82A7D4A773})
        Interface name: \Device\NPF_{12008EE0-85E6-469A-84F0-2F82A7D4A773}
        Interface description: Wi-Fi
    Encapsulation type: Ethernet (1)
    Arrival Time: Mar 30, 2026 16:58:55.822036000 Central America Standard Time
    UTC Arrival Time: Mar 30, 2026 22:58:55.822036000 UTC
    Epoch Arrival Time: 1774911535.822036000
    [Time shift for this packet: 0.000000000 seconds]
    [Time delta from previous captured frame: 2.480000 milliseconds]
    [Time delta from previous displayed frame: 2.480000 milliseconds]
    [Time since reference or first frame: 27.052314000 seconds]
    Frame Number: 13251
    Frame Length: 209 bytes (1672 bits)
    Capture Length: 209 bytes (1672 bits)
    [Frame is marked: False]
    [Frame is ignored: False]
    [Protocols in frame: eth:ethertype:ip:tcp:tls]
    Character encoding: ASCII (0)
Ethernet II, Src: unifi.localdomain (6c:63:f8:eb:9c:13), Dst: DESKTOP-7HDTRP6 (d0:c6:37:4c:c3:72)
    Destination: DESKTOP-7HDTRP6 (d0:c6:37:4c:c3:72)
        .... ..0. .... .... .... .... = LG bit: Globally unique address (factory default)
        .... ...0 .... .... .... .... = IG bit: Individual address (unicast)
    Source: unifi.localdomain (6c:63:f8:eb:9c:13)
        .... ..0. .... .... .... .... = LG bit: Globally unique address (factory default)
        .... ...0 .... .... .... .... = IG bit: Individual address (unicast)
    Type: IPv4 (0x0800)
    [Stream index: 6]
Internet Protocol Version 4, Src: 104.18.20.246 (104.18.20.246), Dst: DESKTOP-7HDTRP6 (10.0.1.254)
    0100 .... = Version: 4
    .... 0101 = Header Length: 20 bytes (5)
    Differentiated Services Field: 0x00 (DSCP: CS0, ECN: Not-ECT)
        0000 00.. = Differentiated Services Codepoint: Default (0)
        .... ..00 = Explicit Congestion Notification: Not ECN-Capable Transport (0)
    Total Length: 195
    Identification: 0x537b (21371)
    010. .... = Flags: 0x2, Don't fragment
        0... .... = Reserved bit: Not set
        .1.. .... = Don't fragment: Set
        ..0. .... = More fragments: Not set
    ...0 0000 0000 0000 = Fragment Offset: 0
    Time to Live: 56
    Protocol: TCP (6)
    Header Checksum: 0x65b4 [validation disabled]
    [Header checksum status: Unverified]
    Source Address: 104.18.20.246 (104.18.20.246)
    Destination Address: DESKTOP-7HDTRP6 (10.0.1.254)
    [Stream index: 48]
Transmission Control Protocol, Src Port: https (443), Dst Port: 48591 (48591), Seq: 228612, Ack: 1846, Len: 155
    Source Port: https (443)
    Destination Port: 48591 (48591)
    [Stream index: 32]
    [Stream Packet Number: 1438]
    [Conversation completeness: Incomplete (12)]
        ..0. .... = RST: Absent
        ...0 .... = FIN: Absent
        .... 1... = Data: Present
        .... .1.. = ACK: Present
        .... ..0. = SYN-ACK: Absent
        .... ...0 = SYN: Absent
        [Completeness Flags: ··DA··]
    [TCP Segment Len: 155]
    Sequence Number: 228612    (relative sequence number)
    Sequence Number (raw): 3728978235
    [Next Sequence Number: 228767    (relative sequence number)]
    Acknowledgment Number: 1846    (relative ack number)
    Acknowledgment number (raw): 3262956727
    0101 .... = Header Length: 20 bytes (5)
    Flags: 0x018 (PSH, ACK)
        000. .... .... = Reserved: Not set
        ...0 .... .... = Accurate ECN: Not set
        .... 0... .... = Congestion Window Reduced: Not set
        .... .0.. .... = ECN-Echo: Not set
        .... ..0. .... = Urgent: Not set
        .... ...1 .... = Acknowledgment: Set
        .... .... 1... = Push: Set
        .... .... .0.. = Reset: Not set
        .... .... ..0. = Syn: Not set
        .... .... ...0 = Fin: Not set
        [TCP Flags: ·······AP···]
    Window: 259
    [Calculated window size: 259]
    [Window size scaling factor: -1 (unknown)]
    Checksum: 0x029f [unverified]
    [Checksum Status: Unverified]
    Urgent Pointer: 0
    [Timestamps]
        [Time since first frame in this TCP stream: 16.768401000 seconds]
        [Time since previous frame in this TCP stream: 3.733000 milliseconds]
    [SEQ/ACK analysis]
        [Bytes in flight: 310]
        [Bytes sent since last PSH flag: 155]
    [Client Contiguous Streams: 1]
    [Server Contiguous Streams: 1]
    TCP payload (155 bytes)
Transport Layer Security
    [Stream index: 27]
    TLSv1.2 Record Layer: Application Data Protocol: Hypertext Transfer Protocol
        Content Type: Application Data (23)
        Version: TLS 1.2 (0x0303)
        Length: 150
        Encrypted Application Data […]: 5dd1ead107be0f8037f4fdc5e12e2170ace231fa548afb8ab969d95750410afd6e4d38dcfc9882b85118e42d03abe16947390bac7620cde3b431926e45e525294b05cce96b0194951ecda5a424dbbba91328bec250f6f1d47321941af4682c2ab7f37643b03ee
        [Application Data Protocol: Hypertext Transfer Protocol]
[Community ID: 1:fTrMmAucufepXJros6MUci/1gfg=]

0000  d0 c6 37 4c c3 72 6c 63 f8 eb 9c 13 08 00 45 00   ..7L.rlc......E.
0010  00 c3 53 7b 40 00 38 06 65 b4 68 12 14 f6 0a 00   ..S{@.8.e.h.....
0020  01 fe 01 bb bd cf de 43 b1 3b c2 7c c4 b7 50 18   .......C.;.|..P.
0030  01 03 02 9f 00 00 17 03 03 00 96 5d d1 ea d1 07   ...........]....
0040  be 0f 80 37 f4 fd c5 e1 2e 21 70 ac e2 31 fa 54   ...7.....!p..1.T
0050  8a fb 8a b9 69 d9 57 50 41 0a fd 6e 4d 38 dc fc   ....i.WPA..nM8..
0060  98 82 b8 51 18 e4 2d 03 ab e1 69 47 39 0b ac 76   ...Q..-...iG9..v
0070  20 cd e3 b4 31 92 6e 45 e5 25 29 4b 05 cc e9 6b    ...1.nE.%)K...k
0080  01 94 95 1e cd a5 a4 24 db bb a9 13 28 be c2 50   .......$....(..P
0090  f6 f1 d4 73 21 94 1a f4 68 2c 2a b7 f3 76 43 b0   ...s!...h,*..vC.
00a0  3e e9 f6 dd 66 de b9 02 b6 6f 0e 82 73 63 88 d8   >...f....o..sc..
00b0  84 98 cb c7 53 49 26 12 a9 81 a1 83 52 9f f5 a1   ....SI&.....R...
00c0  88 5e 3a 3f 1f d1 24 ba 8a d3 b0 af 76 93 18 19   .^:?..$.....v...
00d0  82                                                .

Frame 13252: Packet, 54 bytes on wire (432 bits), 54 bytes captured (432 bits) on interface \Device\NPF_{12008EE0-85E6-469A-84F0-2F82A7D4A773}, id 0
    Section number: 1
    Interface id: 0 (\Device\NPF_{12008EE0-85E6-469A-84F0-2F82A7D4A773})
        Interface name: \Device\NPF_{12008EE0-85E6-469A-84F0-2F82A7D4A773}
        Interface description: Wi-Fi
    Encapsulation type: Ethernet (1)
    Arrival Time: Mar 30, 2026 16:58:55.822110000 Central America Standard Time
    UTC Arrival Time: Mar 30, 2026 22:58:55.822110000 UTC
    Epoch Arrival Time: 1774911535.822110000
    [Time shift for this packet: 0.000000000 seconds]
    [Time delta from previous captured frame: 74.000 microseconds]
    [Time delta from previous displayed frame: 74.000 microseconds]
    [Time since reference or first frame: 27.052388000 seconds]
    Frame Number: 13252
    Frame Length: 54 bytes (432 bits)
    Capture Length: 54 bytes (432 bits)
    [Frame is marked: False]
    [Frame is ignored: False]
    [Protocols in frame: eth:ethertype:ip:tcp]
    Character encoding: ASCII (0)
Ethernet II, Src: DESKTOP-7HDTRP6 (d0:c6:37:4c:c3:72), Dst: unifi.localdomain (6c:63:f8:eb:9c:13)
    Destination: unifi.localdomain (6c:63:f8:eb:9c:13)
        .... ..0. .... .... .... .... = LG bit: Globally unique address (factory default)
        .... ...0 .... .... .... .... = IG bit: Individual address (unicast)
    Source: DESKTOP-7HDTRP6 (d0:c6:37:4c:c3:72)
        .... ..0. .... .... .... .... = LG bit: Globally unique address (factory default)
        .... ...0 .... .... .... .... = IG bit: Individual address (unicast)
    Type: IPv4 (0x0800)
    [Stream index: 6]
Internet Protocol Version 4, Src: DESKTOP-7HDTRP6 (10.0.1.254), Dst: 104.18.20.246 (104.18.20.246)
    0100 .... = Version: 4
    .... 0101 = Header Length: 20 bytes (5)
    Differentiated Services Field: 0x00 (DSCP: CS0, ECN: Not-ECT)
        0000 00.. = Differentiated Services Codepoint: Default (0)
        .... ..00 = Explicit Congestion Notification: Not ECN-Capable Transport (0)
    Total Length: 40
    Identification: 0x1127 (4391)
    010. .... = Flags: 0x2, Don't fragment
        0... .... = Reserved bit: Not set
        .1.. .... = Don't fragment: Set
        ..0. .... = More fragments: Not set
    ...0 0000 0000 0000 = Fragment Offset: 0
    Time to Live: 128
    Protocol: TCP (6)
    Header Checksum: 0x60a3 [validation disabled]
    [Header checksum status: Unverified]
    Source Address: DESKTOP-7HDTRP6 (10.0.1.254)
    Destination Address: 104.18.20.246 (104.18.20.246)
    [Stream index: 48]
Transmission Control Protocol, Src Port: 48591 (48591), Dst Port: https (443), Seq: 1846, Ack: 228767, Len: 0
    Source Port: 48591 (48591)
    Destination Port: https (443)
    [Stream index: 32]
    [Stream Packet Number: 1439]
    [Conversation completeness: Incomplete (12)]
        ..0. .... = RST: Absent
        ...0 .... = FIN: Absent
        .... 1... = Data: Present
        .... .1.. = ACK: Present
        .... ..0. = SYN-ACK: Absent
        .... ...0 = SYN: Absent
        [Completeness Flags: ··DA··]
    [TCP Segment Len: 0]
    Sequence Number: 1846    (relative sequence number)
    Sequence Number (raw): 3262956727
    [Next Sequence Number: 1846    (relative sequence number)]
    Acknowledgment Number: 228767    (relative ack number)
    Acknowledgment number (raw): 3728978390
    0101 .... = Header Length: 20 bytes (5)
    Flags: 0x010 (ACK)
        000. .... .... = Reserved: Not set
        ...0 .... .... = Accurate ECN: Not set
        .... 0... .... = Congestion Window Reduced: Not set
        .... .0.. .... = ECN-Echo: Not set
        .... ..0. .... = Urgent: Not set
        .... ...1 .... = Acknowledgment: Set
        .... .... 0... = Push: Not set
        .... .... .0.. = Reset: Not set
        .... .... ..0. = Syn: Not set
        .... .... ...0 = Fin: Not set
        [TCP Flags: ·······A····]
    Window: 251
    [Calculated window size: 251]
    [Window size scaling factor: -1 (unknown)]
    Checksum: 0x4efa [unverified]
    [Checksum Status: Unverified]
    Urgent Pointer: 0
    [Timestamps]
        [Time since first frame in this TCP stream: 16.768475000 seconds]
        [Time since previous frame in this TCP stream: 74.000 microseconds]
    [SEQ/ACK analysis]
        [This is an ACK to the segment in frame: 13251]
        [The RTT to ACK the segment was: 74.000 microseconds]
    [Client Contiguous Streams: 1]
    [Server Contiguous Streams: 1]
[Community ID: 1:fTrMmAucufepXJros6MUci/1gfg=]

0000  6c 63 f8 eb 9c 13 d0 c6 37 4c c3 72 08 00 45 00   lc......7L.r..E.
0010  00 28 11 27 40 00 80 06 60 a3 0a 00 01 fe 68 12   .(.'@...`.....h.
0020  14 f6 bd cf 01 bb c2 7c c4 b7 de 43 b1 d6 50 10   .......|...C..P.
0030  00 fb 4e fa 00 00                                 ..N...

Frame 13253: Packet, 56 bytes on wire (448 bits), 56 bytes captured (448 bits) on interface \Device\NPF_{12008EE0-85E6-469A-84F0-2F82A7D4A773}, id 0
    Section number: 1
    Interface id: 0 (\Device\NPF_{12008EE0-85E6-469A-84F0-2F82A7D4A773})
        Interface name: \Device\NPF_{12008EE0-85E6-469A-84F0-2F82A7D4A773}
        Interface description: Wi-Fi
    Encapsulation type: Ethernet (1)
    Arrival Time: Mar 30, 2026 16:58:55.824867000 Central America Standard Time
    UTC Arrival Time: Mar 30, 2026 22:58:55.824867000 UTC
    Epoch Arrival Time: 1774911535.824867000
    [Time shift for this packet: 0.000000000 seconds]
    [Time delta from previous captured frame: 2.757000 milliseconds]
    [Time delta from previous displayed frame: 2.757000 milliseconds]
    [Time since reference or first frame: 27.055145000 seconds]
    Frame Number: 13253
    Frame Length: 56 bytes (448 bits)
    Capture Length: 56 bytes (448 bits)
    [Frame is marked: False]
    [Frame is ignored: False]
    [Protocols in frame: eth:ethertype:ip:tcp]
    Character encoding: ASCII (0)
Ethernet II, Src: unifi.localdomain (6c:63:f8:eb:9c:13), Dst: DESKTOP-7HDTRP6 (d0:c6:37:4c:c3:72)
    Destination: DESKTOP-7HDTRP6 (d0:c6:37:4c:c3:72)
        .... ..0. .... .... .... .... = LG bit: Globally unique address (factory default)
        .... ...0 .... .... .... .... = IG bit: Individual address (unicast)
    Source: unifi.localdomain (6c:63:f8:eb:9c:13)
        .... ..0. .... .... .... .... = LG bit: Globally unique address (factory default)
        .... ...0 .... .... .... .... = IG bit: Individual address (unicast)
    Type: IPv4 (0x0800)
    [Stream index: 6]
    Trailer: 0000
Internet Protocol Version 4, Src: 74.204.49.34.bc.googleusercontent.com (34.49.204.74), Dst: DESKTOP-7HDTRP6 (10.0.1.254)
    0100 .... = Version: 4
    .... 0101 = Header Length: 20 bytes (5)
    Differentiated Services Field: 0x00 (DSCP: CS0, ECN: Not-ECT)
        0000 00.. = Differentiated Services Codepoint: Default (0)
        .... ..00 = Explicit Congestion Notification: Not ECN-Capable Transport (0)
    Total Length: 40
    Identification: 0x12c9 (4809)
    000. .... = Flags: 0x0
        0... .... = Reserved bit: Not set
        .0.. .... = Don't fragment: Not set
        ..0. .... = More fragments: Not set
    ...0 0000 0000 0000 = Fragment Offset: 0
    Time to Live: 120
    Protocol: TCP (6)
    Header Checksum: 0x358e [validation disabled]
    [Header checksum status: Unverified]
    Source Address: 74.204.49.34.bc.googleusercontent.com (34.49.204.74)
    Destination Address: DESKTOP-7HDTRP6 (10.0.1.254)
    [Stream index: 21]
Transmission Control Protocol, Src Port: https (443), Dst Port: 39451 (39451), Seq: 4600, Ack: 656, Len: 0
    Source Port: https (443)
    Destination Port: 39451 (39451)
    [Stream index: 7]
    [Stream Packet Number: 54]
    [Conversation completeness: Incomplete (12)]
        ..0. .... = RST: Absent
        ...0 .... = FIN: Absent
        .... 1... = Data: Present
        .... .1.. = ACK: Present
        .... ..0. = SYN-ACK: Absent
        .... ...0 = SYN: Absent
        [Completeness Flags: ··DA··]
    [TCP Segment Len: 0]
    Sequence Number: 4600    (relative sequence number)
    Sequence Number (raw): 3346162289
    [Next Sequence Number: 4600    (relative sequence number)]
    Acknowledgment Number: 656    (relative ack number)
    Acknowledgment number (raw): 4257593595
    0101 .... = Header Length: 20 bytes (5)
    Flags: 0x010 (ACK)
        000. .... .... = Reserved: Not set
        ...0 .... .... = Accurate ECN: Not set
        .... 0... .... = Congestion Window Reduced: Not set
        .... .0.. .... = ECN-Echo: Not set
        .... ..0. .... = Urgent: Not set
        .... ...1 .... = Acknowledgment: Set
        .... .... 0... = Push: Not set
        .... .... .0.. = Reset: Not set
        .... .... ..0. = Syn: Not set
        .... .... ...0 = Fin: Not set
        [TCP Flags: ·······A····]
    Window: 16080
    [Calculated window size: 16080]
    [Window size scaling factor: -1 (unknown)]
    Checksum: 0xfa0e [unverified]
    [Checksum Status: Unverified]
    Urgent Pointer: 0
    [Timestamps]
        [Time since first frame in this TCP stream: 26.081623000 seconds]
        [Time since previous frame in this TCP stream: 71.853000 milliseconds]
    [SEQ/ACK analysis]
        [This is an ACK to the segment in frame: 13203]
        [The RTT to ACK the segment was: 71.853000 milliseconds]
    [Client Contiguous Streams: 1]
    [Server Contiguous Streams: 1]
[Community ID: 1:RQv+rOIkuVnW8FPhrhvS8oAj4Q0=]

0000  d0 c6 37 4c c3 72 6c 63 f8 eb 9c 13 08 00 45 00   ..7L.rlc......E.
0010  00 28 12 c9 00 00 78 06 35 8e 22 31 cc 4a 0a 00   .(....x.5."1.J..
0020  01 fe 01 bb 9a 1b c7 72 62 71 fd c5 b8 fb 50 10   .......rbq....P.
0030  3e d0 fa 0e 00 00 00 00                           >.......

Frame 13254: Packet, 125 bytes on wire (1000 bits), 125 bytes captured (1000 bits) on interface \Device\NPF_{12008EE0-85E6-469A-84F0-2F82A7D4A773}, id 0
    Section number: 1
    Interface id: 0 (\Device\NPF_{12008EE0-85E6-469A-84F0-2F82A7D4A773})
        Interface name: \Device\NPF_{12008EE0-85E6-469A-84F0-2F82A7D4A773}
        Interface description: Wi-Fi
    Encapsulation type: Ethernet (1)
    Arrival Time: Mar 30, 2026 16:58:55.832958000 Central America Standard Time
    UTC Arrival Time: Mar 30, 2026 22:58:55.832958000 UTC
    Epoch Arrival Time: 1774911535.832958000
    [Time shift for this packet: 0.000000000 seconds]
    [Time delta from previous captured frame: 8.091000 milliseconds]
    [Time delta from previous displayed frame: 8.091000 milliseconds]
    [Time since reference or first frame: 27.063236000 seconds]
    Frame Number: 13254
    Frame Length: 125 bytes (1000 bits)
    Capture Length: 125 bytes (1000 bits)
    [Frame is marked: False]
    [Frame is ignored: False]
    [Protocols in frame: eth:ethertype:ip:tcp:tls]
    Character encoding: ASCII (0)
Ethernet II, Src: unifi.localdomain (6c:63:f8:eb:9c:13), Dst: DESKTOP-7HDTRP6 (d0:c6:37:4c:c3:72)
    Destination: DESKTOP-7HDTRP6 (d0:c6:37:4c:c3:72)
        .... ..0. .... .... .... .... = LG bit: Globally unique address (factory default)
        .... ...0 .... .... .... .... = IG bit: Individual address (unicast)
    Source: unifi.localdomain (6c:63:f8:eb:9c:13)
        .... ..0. .... .... .... .... = LG bit: Globally unique address (factory default)
        .... ...0 .... .... .... .... = IG bit: Individual address (unicast)
    Type: IPv4 (0x0800)
    [Stream index: 6]
Internet Protocol Version 4, Src: 104.18.20.246 (104.18.20.246), Dst: DESKTOP-7HDTRP6 (10.0.1.254)
    0100 .... = Version: 4
    .... 0101 = Header Length: 20 bytes (5)
    Differentiated Services Field: 0x00 (DSCP: CS0, ECN: Not-ECT)
        0000 00.. = Differentiated Services Codepoint: Default (0)
        .... ..00 = Explicit Congestion Notification: Not ECN-Capable Transport (0)
    Total Length: 111
    Identification: 0x537c (21372)
    010. .... = Flags: 0x2, Don't fragment
        0... .... = Reserved bit: Not set
        .1.. .... = Don't fragment: Set
        ..0. .... = More fragments: Not set
    ...0 0000 0000 0000 = Fragment Offset: 0
    Time to Live: 56
    Protocol: TCP (6)
    Header Checksum: 0x6607 [validation disabled]
    [Header checksum status: Unverified]
    Source Address: 104.18.20.246 (104.18.20.246)
    Destination Address: DESKTOP-7HDTRP6 (10.0.1.254)
    [Stream index: 48]
Transmission Control Protocol, Src Port: https (443), Dst Port: 48591 (48591), Seq: 228767, Ack: 1846, Len: 71
    Source Port: https (443)
    Destination Port: 48591 (48591)
    [Stream index: 32]
    [Stream Packet Number: 1440]
    [Conversation completeness: Incomplete (12)]
        ..0. .... = RST: Absent
        ...0 .... = FIN: Absent
        .... 1... = Data: Present
        .... .1.. = ACK: Present
        .... ..0. = SYN-ACK: Absent
        .... ...0 = SYN: Absent
        [Completeness Flags: ··DA··]
    [TCP Segment Len: 71]
    Sequence Number: 228767    (relative sequence number)
    Sequence Number (raw): 3728978390
    [Next Sequence Number: 228838    (relative sequence number)]
    Acknowledgment Number: 1846    (relative ack number)
    Acknowledgment number (raw): 3262956727
    0101 .... = Header Length: 20 bytes (5)
    Flags: 0x018 (PSH, ACK)
        000. .... .... = Reserved: Not set
        ...0 .... .... = Accurate ECN: Not set
        .... 0... .... = Congestion Window Reduced: Not set
        .... .0.. .... = ECN-Echo: Not set
        .... ..0. .... = Urgent: Not set
        .... ...1 .... = Acknowledgment: Set
        .... .... 1... = Push: Set
        .... .... .0.. = Reset: Not set
        .... .... ..0. = Syn: Not set
        .... .... ...0 = Fin: Not set
        [TCP Flags: ·······AP···]
    Window: 259
    [Calculated window size: 259]
    [Window size scaling factor: -1 (unknown)]
    Checksum: 0x9f85 [unverified]
    [Checksum Status: Unverified]
    Urgent Pointer: 0
    [Timestamps]
        [Time since first frame in this TCP stream: 16.779323000 seconds]
        [Time since previous frame in this TCP stream: 10.848000 milliseconds]
    [SEQ/ACK analysis]
        [Bytes in flight: 71]
        [Bytes sent since last PSH flag: 71]
    [Client Contiguous Streams: 1]
    [Server Contiguous Streams: 1]
    TCP payload (71 bytes)
Transport Layer Security
    [Stream index: 27]
    TLSv1.2 Record Layer: Application Data Protocol: Hypertext Transfer Protocol
        Content Type: Application Data (23)
        Version: TLS 1.2 (0x0303)
        Length: 66
        Encrypted Application Data: 06cec818ba8a86e4c000acdf5301590b81ec97dfce6a25d45ac7e2a0f463051b1ea7d5f3ba1ba51e8710807f4daa2db55b4dc927d7caac6d16a249ce87aad02c7463
        [Application Data Protocol: Hypertext Transfer Protocol]
[Community ID: 1:fTrMmAucufepXJros6MUci/1gfg=]

0000  d0 c6 37 4c c3 72 6c 63 f8 eb 9c 13 08 00 45 00   ..7L.rlc......E.
0010  00 6f 53 7c 40 00 38 06 66 07 68 12 14 f6 0a 00   .oS|@.8.f.h.....
0020  01 fe 01 bb bd cf de 43 b1 d6 c2 7c c4 b7 50 18   .......C...|..P.
0030  01 03 9f 85 00 00 17 03 03 00 42 06 ce c8 18 ba   ..........B.....
0040  8a 86 e4 c0 00 ac df 53 01 59 0b 81 ec 97 df ce   .......S.Y......
0050  6a 25 d4 5a c7 e2 a0 f4 63 05 1b 1e a7 d5 f3 ba   j%.Z....c.......
0060  1b a5 1e 87 10 80 7f 4d aa 2d b5 5b 4d c9 27 d7   .......M.-.[M.'.
0070  ca ac 6d 16 a2 49 ce 87 aa d0 2c 74 63            ..m..I....,tc

Frame 13255: Packet, 211 bytes on wire (1688 bits), 211 bytes captured (1688 bits) on interface \Device\NPF_{12008EE0-85E6-469A-84F0-2F82A7D4A773}, id 0
    Section number: 1
    Interface id: 0 (\Device\NPF_{12008EE0-85E6-469A-84F0-2F82A7D4A773})
        Interface name: \Device\NPF_{12008EE0-85E6-469A-84F0-2F82A7D4A773}
        Interface description: Wi-Fi
    Encapsulation type: Ethernet (1)
    Arrival Time: Mar 30, 2026 16:58:55.847964000 Central America Standard Time
    UTC Arrival Time: Mar 30, 2026 22:58:55.847964000 UTC
    Epoch Arrival Time: 1774911535.847964000
    [Time shift for this packet: 0.000000000 seconds]
    [Time delta from previous captured frame: 15.006000 milliseconds]
    [Time delta from previous displayed frame: 15.006000 milliseconds]
    [Time since reference or first frame: 27.078242000 seconds]
    Frame Number: 13255
    Frame Length: 211 bytes (1688 bits)
    Capture Length: 211 bytes (1688 bits)
    [Frame is marked: False]
    [Frame is ignored: False]
    [Protocols in frame: eth:ethertype:ip:tcp:tls]
    Character encoding: ASCII (0)
Ethernet II, Src: unifi.localdomain (6c:63:f8:eb:9c:13), Dst: DESKTOP-7HDTRP6 (d0:c6:37:4c:c3:72)
    Destination: DESKTOP-7HDTRP6 (d0:c6:37:4c:c3:72)
        .... ..0. .... .... .... .... = LG bit: Globally unique address (factory default)
        .... ...0 .... .... .... .... = IG bit: Individual address (unicast)
    Source: unifi.localdomain (6c:63:f8:eb:9c:13)
        .... ..0. .... .... .... .... = LG bit: Globally unique address (factory default)
        .... ...0 .... .... .... .... = IG bit: Individual address (unicast)
    Type: IPv4 (0x0800)
    [Stream index: 6]
Internet Protocol Version 4, Src: 104.18.20.246 (104.18.20.246), Dst: DESKTOP-7HDTRP6 (10.0.1.254)
    0100 .... = Version: 4
    .... 0101 = Header Length: 20 bytes (5)
    Differentiated Services Field: 0x00 (DSCP: CS0, ECN: Not-ECT)
        0000 00.. = Differentiated Services Codepoint: Default (0)
        .... ..00 = Explicit Congestion Notification: Not ECN-Capable Transport (0)
    Total Length: 197
    Identification: 0x537d (21373)
    010. .... = Flags: 0x2, Don't fragment
        0... .... = Reserved bit: Not set
        .1.. .... = Don't fragment: Set
        ..0. .... = More fragments: Not set
    ...0 0000 0000 0000 = Fragment Offset: 0
    Time to Live: 56
    Protocol: TCP (6)
    Header Checksum: 0x65b0 [validation disabled]
    [Header checksum status: Unverified]
    Source Address: 104.18.20.246 (104.18.20.246)
    Destination Address: DESKTOP-7HDTRP6 (10.0.1.254)
    [Stream index: 48]
Transmission Control Protocol, Src Port: https (443), Dst Port: 48591 (48591), Seq: 228838, Ack: 1846, Len: 157
    Source Port: https (443)
    Destination Port: 48591 (48591)
    [Stream index: 32]
    [Stream Packet Number: 1441]
    [Conversation completeness: Incomplete (12)]
        ..0. .... = RST: Absent
        ...0 .... = FIN: Absent
        .... 1... = Data: Present
        .... .1.. = ACK: Present
        .... ..0. = SYN-ACK: Absent
        .... ...0 = SYN: Absent
        [Completeness Flags: ··DA··]
    [TCP Segment Len: 157]
    Sequence Number: 228838    (relative sequence number)
    Sequence Number (raw): 3728978461
    [Next Sequence Number: 228995    (relative sequence number)]
    Acknowledgment Number: 1846    (relative ack number)
    Acknowledgment number (raw): 3262956727
    0101 .... = Header Length: 20 bytes (5)
    Flags: 0x018 (PSH, ACK)
        000. .... .... = Reserved: Not set
        ...0 .... .... = Accurate ECN: Not set
        .... 0... .... = Congestion Window Reduced: Not set
        .... .0.. .... = ECN-Echo: Not set
        .... ..0. .... = Urgent: Not set
        .... ...1 .... = Acknowledgment: Set
        .... .... 1... = Push: Set
        .... .... .0.. = Reset: Not set
        .... .... ..0. = Syn: Not set
        .... .... ...0 = Fin: Not set
        [TCP Flags: ·······AP···]
    Window: 259
    [Calculated window size: 259]
    [Window size scaling factor: -1 (unknown)]
    Checksum: 0xd1c4 [unverified]
    [Checksum Status: Unverified]
    Urgent Pointer: 0
    [Timestamps]
        [Time since first frame in this TCP stream: 16.794329000 seconds]
        [Time since previous frame in this TCP stream: 15.006000 milliseconds]
    [SEQ/ACK analysis]
        [Bytes in flight: 228]
        [Bytes sent since last PSH flag: 157]
    [Client Contiguous Streams: 1]
    [Server Contiguous Streams: 1]
    TCP payload (157 bytes)
Transport Layer Security
    [Stream index: 27]
    TLSv1.2 Record Layer: Application Data Protocol: Hypertext Transfer Protocol
        Content Type: Application Data (23)
        Version: TLS 1.2 (0x0303)
        Length: 152
        Encrypted Application Data […]: f8486459c10ba855e90c1b1bee17f65eadeeec7bd6c9c34aebc6660036f6ec4dc5c6472f6feea37fc65a338815f6e0ce891bb145523e6a78add29ba44bd90fe8923f06fee8675a57cde882a81125367d659ab026fc5e9bdf95814d00c4817ba05f8099e7cbb35
        [Application Data Protocol: Hypertext Transfer Protocol]
[Community ID: 1:fTrMmAucufepXJros6MUci/1gfg=]

0000  d0 c6 37 4c c3 72 6c 63 f8 eb 9c 13 08 00 45 00   ..7L.rlc......E.
0010  00 c5 53 7d 40 00 38 06 65 b0 68 12 14 f6 0a 00   ..S}@.8.e.h.....
0020  01 fe 01 bb bd cf de 43 b2 1d c2 7c c4 b7 50 18   .......C...|..P.
0030  01 03 d1 c4 00 00 17 03 03 00 98 f8 48 64 59 c1   ............HdY.
0040  0b a8 55 e9 0c 1b 1b ee 17 f6 5e ad ee ec 7b d6   ..U.......^...{.
0050  c9 c3 4a eb c6 66 00 36 f6 ec 4d c5 c6 47 2f 6f   ..J..f.6..M..G/o
0060  ee a3 7f c6 5a 33 88 15 f6 e0 ce 89 1b b1 45 52   ....Z3........ER
0070  3e 6a 78 ad d2 9b a4 4b d9 0f e8 92 3f 06 fe e8   >jx....K....?...
0080  67 5a 57 cd e8 82 a8 11 25 36 7d 65 9a b0 26 fc   gZW.....%6}e..&.
0090  5e 9b df 95 81 4d 00 c4 81 7b a0 5f 80 99 e7 cb   ^....M...{._....
00a0  b3 50 bd 86 fa 39 8d c4 fe 12 87 f4 e1 4b 2f 96   .P...9.......K/.
00b0  4c 92 29 61 78 51 f4 75 6b 25 a1 bc 25 2c 79 c7   L.)axQ.uk%..%,y.
00c0  09 d9 98 66 46 29 84 c0 d2 7e 29 35 f4 c7 20 d9   ...fF)...~)5.. .
00d0  12 60 54                                          .`T

Frame 13256: Packet, 54 bytes on wire (432 bits), 54 bytes captured (432 bits) on interface \Device\NPF_{12008EE0-85E6-469A-84F0-2F82A7D4A773}, id 0
    Section number: 1
    Interface id: 0 (\Device\NPF_{12008EE0-85E6-469A-84F0-2F82A7D4A773})
        Interface name: \Device\NPF_{12008EE0-85E6-469A-84F0-2F82A7D4A773}
        Interface description: Wi-Fi
    Encapsulation type: Ethernet (1)
    Arrival Time: Mar 30, 2026 16:58:55.848099000 Central America Standard Time
    UTC Arrival Time: Mar 30, 2026 22:58:55.848099000 UTC
    Epoch Arrival Time: 1774911535.848099000
    [Time shift for this packet: 0.000000000 seconds]
    [Time delta from previous captured frame: 135.000 microseconds]
    [Time delta from previous displayed frame: 135.000 microseconds]
    [Time since reference or first frame: 27.078377000 seconds]
    Frame Number: 13256
    Frame Length: 54 bytes (432 bits)
    Capture Length: 54 bytes (432 bits)
    [Frame is marked: False]
    [Frame is ignored: False]
    [Protocols in frame: eth:ethertype:ip:tcp]
    Character encoding: ASCII (0)
Ethernet II, Src: DESKTOP-7HDTRP6 (d0:c6:37:4c:c3:72), Dst: unifi.localdomain (6c:63:f8:eb:9c:13)
    Destination: unifi.localdomain (6c:63:f8:eb:9c:13)
        .... ..0. .... .... .... .... = LG bit: Globally unique address (factory default)
        .... ...0 .... .... .... .... = IG bit: Individual address (unicast)
    Source: DESKTOP-7HDTRP6 (d0:c6:37:4c:c3:72)
        .... ..0. .... .... .... .... = LG bit: Globally unique address (factory default)
        .... ...0 .... .... .... .... = IG bit: Individual address (unicast)
    Type: IPv4 (0x0800)
    [Stream index: 6]
Internet Protocol Version 4, Src: DESKTOP-7HDTRP6 (10.0.1.254), Dst: 104.18.20.246 (104.18.20.246)
    0100 .... = Version: 4
    .... 0101 = Header Length: 20 bytes (5)
    Differentiated Services Field: 0x00 (DSCP: CS0, ECN: Not-ECT)
        0000 00.. = Differentiated Services Codepoint: Default (0)
        .... ..00 = Explicit Congestion Notification: Not ECN-Capable Transport (0)
    Total Length: 40
    Identification: 0x1128 (4392)
    010. .... = Flags: 0x2, Don't fragment
        0... .... = Reserved bit: Not set
        .1.. .... = Don't fragment: Set
        ..0. .... = More fragments: Not set
    ...0 0000 0000 0000 = Fragment Offset: 0
    Time to Live: 128
    Protocol: TCP (6)
    Header Checksum: 0x60a2 [validation disabled]
    [Header checksum status: Unverified]
    Source Address: DESKTOP-7HDTRP6 (10.0.1.254)
    Destination Address: 104.18.20.246 (104.18.20.246)
    [Stream index: 48]
Transmission Control Protocol, Src Port: 48591 (48591), Dst Port: https (443), Seq: 1846, Ack: 228995, Len: 0
    Source Port: 48591 (48591)
    Destination Port: https (443)
    [Stream index: 32]
    [Stream Packet Number: 1442]
    [Conversation completeness: Incomplete (12)]
        ..0. .... = RST: Absent
        ...0 .... = FIN: Absent
        .... 1... = Data: Present
        .... .1.. = ACK: Present
        .... ..0. = SYN-ACK: Absent
        .... ...0 = SYN: Absent
        [Completeness Flags: ··DA··]
    [TCP Segment Len: 0]
    Sequence Number: 1846    (relative sequence number)
    Sequence Number (raw): 3262956727
    [Next Sequence Number: 1846    (relative sequence number)]
    Acknowledgment Number: 228995    (relative ack number)
    Acknowledgment number (raw): 3728978618
    0101 .... = Header Length: 20 bytes (5)
    Flags: 0x010 (ACK)
        000. .... .... = Reserved: Not set
        ...0 .... .... = Accurate ECN: Not set
        .... 0... .... = Congestion Window Reduced: Not set
        .... .0.. .... = ECN-Echo: Not set
        .... ..0. .... = Urgent: Not set
        .... ...1 .... = Acknowledgment: Set
        .... .... 0... = Push: Not set
        .... .... .0.. = Reset: Not set
        .... .... ..0. = Syn: Not set
        .... .... ...0 = Fin: Not set
        [TCP Flags: ·······A····]
    Window: 255
    [Calculated window size: 255]
    [Window size scaling factor: -1 (unknown)]
    Checksum: 0x4e12 [unverified]
    [Checksum Status: Unverified]
    Urgent Pointer: 0
    [Timestamps]
        [Time since first frame in this TCP stream: 16.794464000 seconds]
        [Time since previous frame in this TCP stream: 135.000 microseconds]
    [SEQ/ACK analysis]
        [This is an ACK to the segment in frame: 13255]
        [The RTT to ACK the segment was: 135.000 microseconds]
    [Client Contiguous Streams: 1]
    [Server Contiguous Streams: 1]
[Community ID: 1:fTrMmAucufepXJros6MUci/1gfg=]

0000  6c 63 f8 eb 9c 13 d0 c6 37 4c c3 72 08 00 45 00   lc......7L.r..E.
0010  00 28 11 28 40 00 80 06 60 a2 0a 00 01 fe 68 12   .(.(@...`.....h.
0020  14 f6 bd cf 01 bb c2 7c c4 b7 de 43 b2 ba 50 10   .......|...C..P.
0030  00 ff 4e 12 00 00                                 ..N...

Frame 13257: Packet, 408 bytes on wire (3264 bits), 408 bytes captured (3264 bits) on interface \Device\NPF_{12008EE0-85E6-469A-84F0-2F82A7D4A773}, id 0
    Section number: 1
    Interface id: 0 (\Device\NPF_{12008EE0-85E6-469A-84F0-2F82A7D4A773})
        Interface name: \Device\NPF_{12008EE0-85E6-469A-84F0-2F82A7D4A773}
        Interface description: Wi-Fi
    Encapsulation type: Ethernet (1)
    Arrival Time: Mar 30, 2026 16:58:55.849827000 Central America Standard Time
    UTC Arrival Time: Mar 30, 2026 22:58:55.849827000 UTC
    Epoch Arrival Time: 1774911535.849827000
    [Time shift for this packet: 0.000000000 seconds]
    [Time delta from previous captured frame: 1.728000 milliseconds]
    [Time delta from previous displayed frame: 1.728000 milliseconds]
    [Time since reference or first frame: 27.080105000 seconds]
    Frame Number: 13257
    Frame Length: 408 bytes (3264 bits)
    Capture Length: 408 bytes (3264 bits)
    [Frame is marked: False]
    [Frame is ignored: False]
    [Protocols in frame: eth:ethertype:ip:tcp:tls]
    Character encoding: ASCII (0)
Ethernet II, Src: unifi.localdomain (6c:63:f8:eb:9c:13), Dst: DESKTOP-7HDTRP6 (d0:c6:37:4c:c3:72)
    Destination: DESKTOP-7HDTRP6 (d0:c6:37:4c:c3:72)
        .... ..0. .... .... .... .... = LG bit: Globally unique address (factory default)
        .... ...0 .... .... .... .... = IG bit: Individual address (unicast)
    Source: unifi.localdomain (6c:63:f8:eb:9c:13)
        .... ..0. .... .... .... .... = LG bit: Globally unique address (factory default)
        .... ...0 .... .... .... .... = IG bit: Individual address (unicast)
    Type: IPv4 (0x0800)
    [Stream index: 6]
Internet Protocol Version 4, Src: 74.204.49.34.bc.googleusercontent.com (34.49.204.74), Dst: DESKTOP-7HDTRP6 (10.0.1.254)
    0100 .... = Version: 4
    .... 0101 = Header Length: 20 bytes (5)
    Differentiated Services Field: 0x00 (DSCP: CS0, ECN: Not-ECT)
        0000 00.. = Differentiated Services Codepoint: Default (0)
        .... ..00 = Explicit Congestion Notification: Not ECN-Capable Transport (0)
    Total Length: 394
    Identification: 0x12ca (4810)
    000. .... = Flags: 0x0
        0... .... = Reserved bit: Not set
        .0.. .... = Don't fragment: Not set
        ..0. .... = More fragments: Not set
    ...0 0000 0000 0000 = Fragment Offset: 0
    Time to Live: 120
    Protocol: TCP (6)
    Header Checksum: 0x342b [validation disabled]
    [Header checksum status: Unverified]
    Source Address: 74.204.49.34.bc.googleusercontent.com (34.49.204.74)
    Destination Address: DESKTOP-7HDTRP6 (10.0.1.254)
    [Stream index: 21]
Transmission Control Protocol, Src Port: https (443), Dst Port: 39451 (39451), Seq: 4600, Ack: 656, Len: 354
    Source Port: https (443)
    Destination Port: 39451 (39451)
    [Stream index: 7]
    [Stream Packet Number: 55]
    [Conversation completeness: Incomplete (12)]
        ..0. .... = RST: Absent
        ...0 .... = FIN: Absent
        .... 1... = Data: Present
        .... .1.. = ACK: Present
        .... ..0. = SYN-ACK: Absent
        .... ...0 = SYN: Absent
        [Completeness Flags: ··DA··]
    [TCP Segment Len: 354]
    Sequence Number: 4600    (relative sequence number)
    Sequence Number (raw): 3346162289
    [Next Sequence Number: 4954    (relative sequence number)]
    Acknowledgment Number: 656    (relative ack number)
    Acknowledgment number (raw): 4257593595
    0101 .... = Header Length: 20 bytes (5)
    Flags: 0x018 (PSH, ACK)
        000. .... .... = Reserved: Not set
        ...0 .... .... = Accurate ECN: Not set
        .... 0... .... = Congestion Window Reduced: Not set
        .... .0.. .... = ECN-Echo: Not set
        .... ..0. .... = Urgent: Not set
        .... ...1 .... = Acknowledgment: Set
        .... .... 1... = Push: Set
        .... .... .0.. = Reset: Not set
        .... .... ..0. = Syn: Not set
        .... .... ...0 = Fin: Not set
        [TCP Flags: ·······AP···]
    Window: 16080
    [Calculated window size: 16080]
    [Window size scaling factor: -1 (unknown)]
    Checksum: 0x2f79 [unverified]
    [Checksum Status: Unverified]
    Urgent Pointer: 0
    [Timestamps]
        [Time since first frame in this TCP stream: 26.106583000 seconds]
        [Time since previous frame in this TCP stream: 24.960000 milliseconds]
    [SEQ/ACK analysis]
        [Bytes in flight: 354]
        [Bytes sent since last PSH flag: 354]
    [Client Contiguous Streams: 1]
    [Server Contiguous Streams: 1]
    TCP payload (354 bytes)
Transport Layer Security
    [Stream index: 7]
    TLSv1.2 Record Layer: Application Data Protocol: Hypertext Transfer Protocol
        Content Type: Application Data (23)
        Version: TLS 1.2 (0x0303)
        Length: 349
        Encrypted Application Data […]: dd7e0716dac31c557649da01e372bec928f4f51f53d71ad40af59365e1ec0ad015d29bfa0ee9dfe908c899287f64275744a7e1c17fdcf739d59d434972430d60f4c6ab71b06101f4c86323ad9b4e605b7c3b57c41d1bb9661d2e4b4a9ac0e0e844875bc349926
        [Application Data Protocol: Hypertext Transfer Protocol]
[Community ID: 1:RQv+rOIkuVnW8FPhrhvS8oAj4Q0=]

0000  d0 c6 37 4c c3 72 6c 63 f8 eb 9c 13 08 00 45 00   ..7L.rlc......E.
0010  01 8a 12 ca 00 00 78 06 34 2b 22 31 cc 4a 0a 00   ......x.4+"1.J..
0020  01 fe 01 bb 9a 1b c7 72 62 71 fd c5 b8 fb 50 18   .......rbq....P.
0030  3e d0 2f 79 00 00 17 03 03 01 5d dd 7e 07 16 da   >./y......].~...
0040  c3 1c 55 76 49 da 01 e3 72 be c9 28 f4 f5 1f 53   ..UvI...r..(...S
0050  d7 1a d4 0a f5 93 65 e1 ec 0a d0 15 d2 9b fa 0e   ......e.........
0060  e9 df e9 08 c8 99 28 7f 64 27 57 44 a7 e1 c1 7f   ......(.d'WD....
0070  dc f7 39 d5 9d 43 49 72 43 0d 60 f4 c6 ab 71 b0   ..9..CIrC.`...q.
0080  61 01 f4 c8 63 23 ad 9b 4e 60 5b 7c 3b 57 c4 1d   a...c#..N`[|;W..
0090  1b b9 66 1d 2e 4b 4a 9a c0 e0 e8 44 87 5b c3 49   ..f..KJ....D.[.I
00a0  92 68 9d bf c2 73 97 c8 d3 54 ab bb 27 cc 3c 53   .h...s...T..'.<S
00b0  9b 6d b2 ff 29 59 a8 91 fb a7 b5 40 1f 11 97 db   .m..)Y.....@....
00c0  f3 bd fe a0 0b cd b6 cf fc 63 d4 df 5b 50 19 f7   .........c..[P..
00d0  ad 37 75 33 ea d5 0b f9 31 83 99 fb d1 ee 59 87   .7u3....1.....Y.
00e0  8c 51 23 b5 91 d0 20 9e 9d 85 3d 95 8c 1d 52 45   .Q#... ...=...RE
00f0  16 61 8c 49 dd 47 1f 95 53 1a 52 d5 6f 0a 4b fd   .a.I.G..S.R.o.K.
0100  d6 b2 a9 ac 48 0b 73 81 13 ac ba 79 d6 5d 7a 6c   ....H.s....y.]zl
0110  2d 92 56 0c 63 d6 8b 19 87 35 61 e3 cc bb 58 d3   -.V.c....5a...X.
0120  a1 75 6a 9d 67 0d a5 72 60 5c 0c d9 76 4b 32 d5   .uj.g..r`\..vK2.
0130  1f 49 45 4d fe 1f d8 31 69 74 89 b2 41 bc e1 db   .IEM...1it..A...
0140  24 c6 94 e5 70 48 00 44 48 78 6a 47 36 e9 01 06   $...pH.DHxjG6...
0150  66 02 d7 c3 a9 7d ce de a7 67 ae 14 fc c6 fd b5   f....}...g......
0160  bf 61 b7 09 10 ef 48 53 00 a9 98 75 c1 b8 79 5e   .a....HS...u..y^
0170  96 ea bc f7 28 ff 5a 8f 95 a8 7e 06 a1 04 1b f4   ....(.Z...~.....
0180  c7 9f 6a e0 80 7d 3c ce b0 53 74 6d f7 49 19 91   ..j..}<..Stm.I..
0190  9a 86 0e d1 e2 22 25 00                           ....."%.

Frame 13258: Packet, 212 bytes on wire (1696 bits), 212 bytes captured (1696 bits) on interface \Device\NPF_{12008EE0-85E6-469A-84F0-2F82A7D4A773}, id 0
    Section number: 1
    Interface id: 0 (\Device\NPF_{12008EE0-85E6-469A-84F0-2F82A7D4A773})
        Interface name: \Device\NPF_{12008EE0-85E6-469A-84F0-2F82A7D4A773}
        Interface description: Wi-Fi
    Encapsulation type: Ethernet (1)
    Arrival Time: Mar 30, 2026 16:58:55.869768000 Central America Standard Time
    UTC Arrival Time: Mar 30, 2026 22:58:55.869768000 UTC
    Epoch Arrival Time: 1774911535.869768000
    [Time shift for this packet: 0.000000000 seconds]
    [Time delta from previous captured frame: 19.941000 milliseconds]
    [Time delta from previous displayed frame: 19.941000 milliseconds]
    [Time since reference or first frame: 27.100046000 seconds]
    Frame Number: 13258
    Frame Length: 212 bytes (1696 bits)
    Capture Length: 212 bytes (1696 bits)
    [Frame is marked: False]
    [Frame is ignored: False]
    [Protocols in frame: eth:ethertype:ip:tcp:tls]
    Character encoding: ASCII (0)
Ethernet II, Src: unifi.localdomain (6c:63:f8:eb:9c:13), Dst: DESKTOP-7HDTRP6 (d0:c6:37:4c:c3:72)
    Destination: DESKTOP-7HDTRP6 (d0:c6:37:4c:c3:72)
        .... ..0. .... .... .... .... = LG bit: Globally unique address (factory default)
        .... ...0 .... .... .... .... = IG bit: Individual address (unicast)
    Source: unifi.localdomain (6c:63:f8:eb:9c:13)
        .... ..0. .... .... .... .... = LG bit: Globally unique address (factory default)
        .... ...0 .... .... .... .... = IG bit: Individual address (unicast)
    Type: IPv4 (0x0800)
    [Stream index: 6]
Internet Protocol Version 4, Src: 104.18.20.246 (104.18.20.246), Dst: DESKTOP-7HDTRP6 (10.0.1.254)
    0100 .... = Version: 4
    .... 0101 = Header Length: 20 bytes (5)
    Differentiated Services Field: 0x00 (DSCP: CS0, ECN: Not-ECT)
        0000 00.. = Differentiated Services Codepoint: Default (0)
        .... ..00 = Explicit Congestion Notification: Not ECN-Capable Transport (0)
    Total Length: 198
    Identification: 0x537e (21374)
    010. .... = Flags: 0x2, Don't fragment
        0... .... = Reserved bit: Not set
        .1.. .... = Don't fragment: Set
        ..0. .... = More fragments: Not set
    ...0 0000 0000 0000 = Fragment Offset: 0
    Time to Live: 56
    Protocol: TCP (6)
    Header Checksum: 0x65ae [validation disabled]
    [Header checksum status: Unverified]
    Source Address: 104.18.20.246 (104.18.20.246)
    Destination Address: DESKTOP-7HDTRP6 (10.0.1.254)
    [Stream index: 48]
Transmission Control Protocol, Src Port: https (443), Dst Port: 48591 (48591), Seq: 228995, Ack: 1846, Len: 158
    Source Port: https (443)
    Destination Port: 48591 (48591)
    [Stream index: 32]
    [Stream Packet Number: 1443]
    [Conversation completeness: Incomplete (12)]
        ..0. .... = RST: Absent
        ...0 .... = FIN: Absent
        .... 1... = Data: Present
        .... .1.. = ACK: Present
        .... ..0. = SYN-ACK: Absent
        .... ...0 = SYN: Absent
        [Completeness Flags: ··DA··]
    [TCP Segment Len: 158]
    Sequence Number: 228995    (relative sequence number)
    Sequence Number (raw): 3728978618
    [Next Sequence Number: 229153    (relative sequence number)]
    Acknowledgment Number: 1846    (relative ack number)
    Acknowledgment number (raw): 3262956727
    0101 .... = Header Length: 20 bytes (5)
    Flags: 0x018 (PSH, ACK)
        000. .... .... = Reserved: Not set
        ...0 .... .... = Accurate ECN: Not set
        .... 0... .... = Congestion Window Reduced: Not set
        .... .0.. .... = ECN-Echo: Not set
        .... ..0. .... = Urgent: Not set
        .... ...1 .... = Acknowledgment: Set
        .... .... 1... = Push: Set
        .... .... .0.. = Reset: Not set
        .... .... ..0. = Syn: Not set
        .... .... ...0 = Fin: Not set
        [TCP Flags: ·······AP···]
    Window: 259
    [Calculated window size: 259]
    [Window size scaling factor: -1 (unknown)]
    Checksum: 0xa29a [unverified]
    [Checksum Status: Unverified]
    Urgent Pointer: 0
    [Timestamps]
        [Time since first frame in this TCP stream: 16.816133000 seconds]
        [Time since previous frame in this TCP stream: 21.669000 milliseconds]
    [SEQ/ACK analysis]
        [Bytes in flight: 158]
        [Bytes sent since last PSH flag: 158]
    [Client Contiguous Streams: 1]
    [Server Contiguous Streams: 1]
    TCP payload (158 bytes)
Transport Layer Security
    [Stream index: 27]
    TLSv1.2 Record Layer: Application Data Protocol: Hypertext Transfer Protocol
        Content Type: Application Data (23)
        Version: TLS 1.2 (0x0303)
        Length: 153
        Encrypted Application Data […]: 2b474bd2f92f38b69fab74ca878d89b55d1e2416a4d8bd634e8d262ece7f18112467df5a262166b1cecf6679b8b794c674e8ebd8504023f97d2f9c34dfdeae4f7e5d5bc87de208b6f0affa4f872cca997559d45f27cc427b5b9fea6c1bd7ebae0b2b09a05c419
        [Application Data Protocol: Hypertext Transfer Protocol]
[Community ID: 1:fTrMmAucufepXJros6MUci/1gfg=]

0000  d0 c6 37 4c c3 72 6c 63 f8 eb 9c 13 08 00 45 00   ..7L.rlc......E.
0010  00 c6 53 7e 40 00 38 06 65 ae 68 12 14 f6 0a 00   ..S~@.8.e.h.....
0020  01 fe 01 bb bd cf de 43 b2 ba c2 7c c4 b7 50 18   .......C...|..P.
0030  01 03 a2 9a 00 00 17 03 03 00 99 2b 47 4b d2 f9   ...........+GK..
0040  2f 38 b6 9f ab 74 ca 87 8d 89 b5 5d 1e 24 16 a4   /8...t.....].$..
0050  d8 bd 63 4e 8d 26 2e ce 7f 18 11 24 67 df 5a 26   ..cN.&.....$g.Z&
0060  21 66 b1 ce cf 66 79 b8 b7 94 c6 74 e8 eb d8 50   !f...fy....t...P
0070  40 23 f9 7d 2f 9c 34 df de ae 4f 7e 5d 5b c8 7d   @#.}/.4...O~][.}
0080  e2 08 b6 f0 af fa 4f 87 2c ca 99 75 59 d4 5f 27   ......O.,..uY._'
0090  cc 42 7b 5b 9f ea 6c 1b d7 eb ae 0b 2b 09 a0 5c   .B{[..l.....+..\
00a0  41 99 bc a1 6d 32 89 00 81 f9 5e b4 60 f1 c8 2e   A...m2....^.`...
00b0  0b 81 07 80 1a 95 a3 17 5a 1b 76 48 c1 fa 25 d9   ........Z.vH..%.
00c0  c0 0f 94 b0 92 a7 3d 04 23 76 42 ba f1 0e 44 a5   ......=.#vB...D.
00d0  ab 6c c2 3d                                       .l.=

Frame 13259: Packet, 408 bytes on wire (3264 bits), 408 bytes captured (3264 bits) on interface \Device\NPF_{12008EE0-85E6-469A-84F0-2F82A7D4A773}, id 0
    Section number: 1
    Interface id: 0 (\Device\NPF_{12008EE0-85E6-469A-84F0-2F82A7D4A773})
        Interface name: \Device\NPF_{12008EE0-85E6-469A-84F0-2F82A7D4A773}
        Interface description: Wi-Fi
    Encapsulation type: Ethernet (1)
    Arrival Time: Mar 30, 2026 16:58:55.887204000 Central America Standard Time
    UTC Arrival Time: Mar 30, 2026 22:58:55.887204000 UTC
    Epoch Arrival Time: 1774911535.887204000
    [Time shift for this packet: 0.000000000 seconds]
    [Time delta from previous captured frame: 17.436000 milliseconds]
    [Time delta from previous displayed frame: 17.436000 milliseconds]
    [Time since reference or first frame: 27.117482000 seconds]
    Frame Number: 13259
    Frame Length: 408 bytes (3264 bits)
    Capture Length: 408 bytes (3264 bits)
    [Frame is marked: False]
    [Frame is ignored: False]
    [Protocols in frame: eth:ethertype:ip:tcp:tls]
    Character encoding: ASCII (0)
Ethernet II, Src: unifi.localdomain (6c:63:f8:eb:9c:13), Dst: DESKTOP-7HDTRP6 (d0:c6:37:4c:c3:72)
    Destination: DESKTOP-7HDTRP6 (d0:c6:37:4c:c3:72)
        .... ..0. .... .... .... .... = LG bit: Globally unique address (factory default)
        .... ...0 .... .... .... .... = IG bit: Individual address (unicast)
    Source: unifi.localdomain (6c:63:f8:eb:9c:13)
        .... ..0. .... .... .... .... = LG bit: Globally unique address (factory default)
        .... ...0 .... .... .... .... = IG bit: Individual address (unicast)
    Type: IPv4 (0x0800)
    [Stream index: 6]
Internet Protocol Version 4, Src: 235.109.160.34.bc.googleusercontent.com (34.160.109.235), Dst: DESKTOP-7HDTRP6 (10.0.1.254)
    0100 .... = Version: 4
    .... 0101 = Header Length: 20 bytes (5)
    Differentiated Services Field: 0x00 (DSCP: CS0, ECN: Not-ECT)
        0000 00.. = Differentiated Services Codepoint: Default (0)
        .... ..00 = Explicit Congestion Notification: Not ECN-Capable Transport (0)
    Total Length: 394
    Identification: 0x3cb8 (15544)
    000. .... = Flags: 0x0
        0... .... = Reserved bit: Not set
        .0.. .... = Don't fragment: Not set
        ..0. .... = More fragments: Not set
    ...0 0000 0000 0000 = Fragment Offset: 0
    Time to Live: 119
    Protocol: TCP (6)
    Header Checksum: 0x692d [validation disabled]
    [Header checksum status: Unverified]
